:020000040000FA
:0600000094EF01F0120074
:020006000000F8
:08000800D9CFE6FFE1CFD9FFDB
:10001000040EE126800EF36E020EF3CFDBFF030E1B
:10002000DB6A070EDE6EDD6ADECF10F0DDCF11F089
:100030000001800E11143CE1FD0EDBCF14F0FE0E2A
:10004000DBCF15F0020EDB501414126E030EDB50E2
:100050001514136EDF5012C010F013C011F005E03C
:10006000D89011321032E804FBE11050E8B08B84D4
:10007000E8A08B94020E106E116A020EDBCF08F01E
:10008000030EDBCF09F010C00DF011C00EF048ECEC
:1000900001F0020E08C0DBFF030E09C0DBFF000009
:1000A0008B8600008B96DF06010E01E2DB06BCD7D3
:1000B000040EE15C02E2E16AE552E16EE552E7CF4F
:1000C000D9FF1200D9CFE6FFE1CFD9FF040EE12618
:1000D000020EDB6A030EDB6A8B86DE6ADD6ADECF28
:1000E00010F0DDCF11F0D890115004E6080E105C2E
:1000F000000E115834E28B50040B01E0010E010A8E
:10010000E8B08B84E8A08B94020EDBCF10F0030ED6
:10011000DBCF11F0D89010361136020E10C0DBFF85
:10012000030E11C0DBFF8B50040B01E0010EE76EE4
:10013000020EDBCF10F0030EDBCF11F0E7501012F0
:10014000020E10C0DBFF030E11C0DBFF00008B9618
:1001500000008B86DF2A010E01E3DB2AC0D7020EE6
:10016000DBCF10F0030EDBCF11F010C0F3FF11C096
:10017000F4FF00D0040EE15C02E2E16AE552E16EB8
:10018000E552E7CFD9FF1200D9CFE6FFE1CFD9FF83
:10019000020EE126949494968B948B9693DFF3CF82
:1001A000DEFFF4CFDDFF000EE66EE66A2DDFE552DE
:1001B000E5520000AA0EE66EE66A26DFE552E55239
:1001C0000000FF0EE66EE66A1FDFE552E552000012
:1001D000800EE66EE66A18DFE552E5520000020E78
:1001E000E15C02E2E16AE552E16EE552E7CFD9FF58
:0201F0001200FB
:0E01F200060EF66E000EF76E000EF86E00019F
:100200000900F550856F0900F550866F03E1856799
:1002100001D03DD00900F550806F0900F550816F85
:100220000900F550826F09000900F550E96E0900D8
:10023000F550EA6E090009000900F550836F0900C6
:10024000F550846F09000900F6CF87F0F7CF88F0EA
:10025000F8CF89F080C0F6FF81C0F7FF82C0F8FFB9
:100260000001835302E1845307E00900F550EE6E6C
:100270008307F8E28407F9D787C0F6FF88C0F7FF45
:1002800089C0F8FF00018507000E865BBFD712000A
:10029000006A0EAE51EF01F00D6C0E1EE86A0E22E0
:1002A000001E09AE59EF01F0086C091EE86A092228
:1002B000001E6EEC01F009BE69EF01F000AE000C0B
:1002C000086C091EE86A0922046C051EE86A05220A
:0C02D000000C00BE60EF01F00188FF0C84
:0402DC00056A046A41
:1002E000100EE76ED89008360936043605360D50E4
:1002F000045C0E50055805E30D50045E0E50055A7F
:08030000082AE72EF0D71200D5
:08030800000EF36E00EE00F0A0
:10031000060E01D81200EA6002D0EE6AFCD7F35054
:08032000E9601200EE6AFCD74F
:0803280015EE00F025EE00F0D7
:10033000F86A019CF9EC00F0A2EC01F0C4EC00F0CA
:04034000FBD71200D5
:020344001200A5
:020000040030CA
:0100010022DC
:010003000EEE
:010006008178
:00000001FF
