:020000040000FA
:06000000A0EF21F0120048
:08000800D0BEB8EF21F0AFEF0C
:040010001EF01200CC
:06001800AFEF1EF0120024
:06002A0002007A44000010
:1000300054030000720000007A430000D401000065
:0400400000010000BB
:0C004400D9CFE6FFDACFE6FFE1CFD9FF0D
:10005000E2CFDAFFE652E652010EDB6A0001C85138
:1000600000080AE2F80EDBCFE9FFF90EDBCFEAFF6A
:10007000110EEF6E000E58D0FC0EDBCFE9FFFD0E27
:10008000DBCFEAFFEF50030A07E0070A05E0050AA5
:1000900003E0030A01E001D00AD0F80EDBCFE9FF4C
:1000A000F90EDBCFEAFF010EEF6E000E3DD0C00E61
:1000B000F214E76E010EE7CFDBFF800ED0143F098C
:1000C000F216FC0EDBCFE9FFFD0EDBCFEAFF070ED9
:1000D000E926000EEA22EECF00F0EFCF01F0FA0E93
:1000E000DBCFE9FFFB0EDBCFEAFF00C0EEFF01C074
:1000F000EDFFFA0EDBCFE9FFFB0EDBCFEAFFEECF21
:10010000E6FFEFCFE6FF6FEC0BF0E552E552DF6E56
:10011000010EDB50F212F80EDBCFE9FFF90EDBCF58
:10012000EAFFEF6ADF5000D0E552E552E552E5CF35
:10013000DAFFE7CFD9FF1200D9CFE6FFDACFE6FF2B
:10014000E1CFD9FFE2CFDAFFE652DF6A0001C85102
:10015000000809E2F80EDBCFE9FFF90EDBCFEAFF7A
:10016000120EEF6E3AD0FC0EDBCFE9FFFD0EDBCFB7
:10017000EAFFEF50030A07E0070A05E0050A03E07B
:10018000030A01E001D009D0F80EDBCFE9FFF90E38
:10019000DBCFEAFF010EEF6E20D0C00EF214DF6E4F
:1001A000800ED0143F09F216FC0EDBCFE9FFFD0EE6
:1001B000DBCFEAFF070EE926000EEA22FA0EDBCFBC
:1001C000EEFFFB0EDBCFEDFFDF50F212F80EDBCFC0
:1001D000E9FFF90EDBCFEAFFEF6AE552E552E5CF22
:1001E000DAFFE7CFD9FF1200D9CFE6FFDACFE6FF7B
:1001F000E1CFD9FFE2CFDAFF090EE12402E3E168A3
:10020000E652E16E080EDB6AFA0EDBCFE9FFFB0E69
:10021000DBCFEAFFEE6AED6AFC0EDBCFDEFFDBCF61
:10022000DDFFDECFE9FFDDCFEAFF020EEECFDBFF21
:10023000030EEDCFDBFFD950020FE96E000EDA207E
:10024000EA6EEE50ED102AE0020EDBCFE9FF030E5E
:10025000DBCFEAFFEF50040A03E0010A01E000D01F
:10026000F20EDBCFE9FFF30EDBCFEAFF010EEF6EFC
:10027000F36AF46A1BD2D9CFE9FFDACFEAFF020EA4
:10028000EE26000EEF22DECFE9FFDDCFEAFF020E01
:10029000EECFDBFF030EEDCFDBFFCDD70001C85162
:1002A00000080BE2F20EDBCFE9FFF30EDBCFEAFF33
:1002B000020EEF6EF36AF46AF9D10001C951000829
:1002C0000BE2F20EDBCFE9FFF30EDBCFEAFF0D0E00
:1002D000EF6EF36AF46AEAD1C00EF214E76E080E0C
:1002E000E7CFDBFF800ED0143F09F216040EDB6A65
:1002F000050EDB6A060EDB6A070EDB6AFC0EDBCF3F
:10030000DEFFDBCFDDFFDECFE9FFDDCFEAFF020E50
:10031000EECFDBFF030EEDCFDBFFD950020FE96E0E
:10032000000EDA20EA6EEE50ED103DE0020EDBCF5B
:10033000E9FF030EDBCFEAFFEF50040A03E0010AF6
:1003400001E000D0080EDB50F212FA0EDBCFE9FF1D
:10035000FB0EDBCFEAFFEE6AED6AF20EDBCFE9FFC0
:10036000F30EDBCFEAFF010EEF6E050EDBCF00F0E0
:10037000060EDBCF01F000C0F3FF01C0F4FF96D101
:10038000D9CFE9FFDACFEAFF020EEE26000EEF2208
:10039000DECFE9FFDDCFEAFF020EEECFDBFF030E7B
:1003A000EDCFDBFFBAD7040EDB041DE1FA0EDBCF85
:1003B000E9FFFB0EDBCFEAFFEE6AED6A080EDB50C9
:1003C000F212F20EDBCFE9FFF30EDBCFEAFFEF6AAA
:1003D000050EDBCF00F0060EDBCF01F000C0F3FF0F
:1003E00001C0F4FF63D1070EDB508009006E54C1D9
:1003F000E9FF55C1EAFF0E0EE926000EEA22005081
:10040000EF1254C1E9FF55C1EAFF0F0EE926000EB5
:10041000EA22EF6A54C1E9FF55C1EAFF0A0EE92654
:10042000000EEA22F40EDBCFEEFFF50EDBCFEEFF7F
:10043000F60EDBCFEEFFF70EDBCFEEFFFC0EDBCFD1
:10044000E6FFFD0EDBCFE6FFD5EC06F0E552E55208
:10045000080EDB50F21205EC0BF0C00EF214E76E42
:10046000080EE7CFDBFF800ED0143F09F21654C10F
:10047000E9FF55C1EAFF0F0EEB50010A5DE0010AEA
:1004800003E0020A01E058D054C1E9FF55C1EAFF78
:10049000060EE926000EEA22020EEECFDBFF030E67
:1004A000EDCFDBFFD950020FE96E000EDA20EA6EC5
:1004B000EE50ED1026E0D950FA0FE96EFF0EDA206B
:1004C000EA6EEECFF3FFEDCFF4FF020EEE26000E44
:1004D000EF22F3CFE9FFF4CFEAFF020EDBCFEEFF0E
:1004E000030EDBCFEDFFFA0EDBCFE9FFFB0EDBCF18
:1004F000EAFFEE6AED6A050EDB2A060E01E3DB2A4F
:100500001AD054C1E9FF55C1EAFF0F0EE926000ECB
:10051000EA22010EEF6EFC0EDBCFE6FFFD0EDBCF15
:10052000E6FF54C1E6FF55C1E6FF00EC08F0E552D6
:10053000E552E552E55211D0FC0EDBCFE6FFFD0E91
:10054000DBCFE6FF54C1E6FF55C1E6FF00EC08F043
:10055000E552E552E552E55200D054C1E9FF55C1DC
:10056000EAFF0F0EEB50010A54E0030A35E0020ADD
:1005700001E04FD0020EDBCFE9FF030EDBCFEAFF35
:10058000EF50040A03E0010A01E000D0080EDB503E
:10059000F212FA0EDBCFE9FFFB0EDBCFEAFFEE6AC9
:1005A000ED6AF20EDBCFE9FFF30EDBCFEAFF010EBF
:1005B000EF6E050EDBCF00F0060EDBCF01F000C0C2
:1005C000F3FF01C0F4FF72D0F20EDBCFE9FFF30EB0
:1005D000DBCFEAFFEF6A3AD0D950F80FE96EFF0E91
:1005E000DA20EA6EEECFF3FFEDCFF4FF020EEE2637
:1005F000000EEF22F3CFE9FFF4CFEAFFEE6AED6AD7
:10060000F20EDBCFE9FFF30EDBCFEAFF0E0EEF6E4B
:100610001DD0D950F80FE96EFF0EDA20EA6EEECF4A
:10062000F3FFEDCFF4FF020EEE26000EEF22F3CF24
:10063000E9FFF4CFEAFFEE6AED6AF20EDBCFE9FFE5
:10064000F30EDBCFEAFF0A0EEF6E00D054C1E9FFD4
:1006500055C1EAFF0E0EE926000EEA22EF6A54C1E8
:10066000E9FF55C1EAFF0F0EE926000EEA22EF6A04
:1006700054C1E9FF55C1EAFF060EEB6A070EEB6AAB
:1006800054C1E9FF55C1EAFF080EEB6A090EEB6A97
:10069000080EDB50F212050EDBCF00F0060EDBCFAA
:1006A00001F000C0F3FF01C0F4FF00D0090EE15CCF
:1006B00002E2E16AE552E16EE552E5CFDAFFE7CF0B
:1006C000D9FF1200F0EC1DF0B9EC09F0D1EC09F003
:1006D00014EC0AF0E5EC08F0FAEC09F0F1EC1DF08E
:1006E0005CEC1FF012000001CE0506E1FF0E0001D8
:1006F000C85D02E20001C82B1200D9CFE6FFDACFB5
:10070000E6FFE1CFD9FFE2CFDAFFE652DF6A000170
:10071000CE0533E1C00EF214DF6E800ED0143F0917
:10072000F2160001C851000802E20001C8070001EA
:10073000C85121E10001C9511EE142EC0BF000015A
:10074000CB51E96EEA6AD890E936EA365C0EE926C2
:10075000010EEA22EECF58F1EDCF59F10001CA5156
:100760000001CB5D08E00001B02B000EB123B223E5
:10077000B323F8EC1EF0DF50F212E552E552E5CF5C
:10078000DAFFE7CFD9FF1200D9CFE6FFDACFE6FFD5
:10079000E1CFD9FFE2CFDAFFE652DF6A0001CE05F2
:1007A00012E1C00EF214DF6E800ED0143F09F21673
:1007B0000001C85106E1FF0E0001C95D02E200011F
:1007C000C92BDF50F212E552E552E5CFDAFFE7CF51
:1007D000D9FF1200D9CFE6FFDACFE6FFE1CFD9FF8C
:1007E000E2CFDAFFE652DF6A0001CE0520E1C00E5B
:1007F000F214DF6E800ED0143F09F2160001C951C9
:10080000000813E20001C9070001C9510BE1000112
:10081000C85105E1DF50F21205EC0BF002D0DF50B9
:10082000F21202D0DF50F21202D0DF50F212E55283
:10083000E552E5CFDAFFE7CFD9FF12000001CE5134
:1008400019E142EC0BF0CBC0CAF00001CB51E96ECC
:10085000EA6AD890E936EA365C0EE926010EEA2209
:10086000EECF58F1EDCF59F158C154F159C155F1BE
:10087000F2EC1DF01200D9CFE6FFDACFE6FFE1CFB0
:10088000D9FFE2CFDAFFE652E652E652E652030E15
:10089000DB6AD6EC1DF0C00EF214E76E030EE7CF54
:1008A000DBFF800ED0143F09F2160101D02B000EA1
:1008B000D123D223D323030EDB50F2120001CE0545
:1008C00001E0E4D00101CF51020A0EE0030A09E081
:1008D000010A01E012D0010EF36E020EF3CFDBFF2E
:1008E00014D0020EDB6A11D0010EF36E020EF3CFAC
:1008F000DBFF0101010ECF6F08D0010EF36E020E77
:10090000F3CFDBFF0101CF6B00D0020EDB5001E122
:10091000BDD05AC1DEFF5BC1DDFFDECFE9FFDDCF19
:10092000EAFF100EE926000EEA22EF50040801E16A
:10093000ADD0C00EF214E76E030EE7CFDBFF800EE2
:10094000D0143F09F216DECFE9FFDDCFEAFF0A0E31
:10095000E926000EEA22EECF00F0EECF01F0EECF56
:1009600002F0EFCF03F0005001100210031001E17C
:100970007DD0DECFE9FFDDCFEAFF0A0EE926000ECB
:10098000EA22EE06000EEE5AEE5AEE5ADECFE9FFEC
:10099000DDCFEAFF0A0EE926000EEA22EECF00F0D4
:1009A000EECF01F0EECF02F0EFCF03F000500110D8
:1009B000021003105BE1DECFE9FFDDCFEAFF0E0E90
:1009C000E926000EEA22EF50370B17E0C80E006E42
:1009D000DECFE9FFDDCFEAFF0E0EE926000EEA22A8
:1009E0000050EF16DECFE9FFDDCFEAFF0F0EE9265C
:1009F000000EEA22010EEF6E09D0DECFE9FFDDCF57
:100A0000EAFF0F0EE926000EEA22EF6ADECFE9FFC9
:100A1000DDCFEAFF0E0EE926000EEA22EF50080BAA
:100A200025E1DECFE9FFDDCFEAFF140EE926000E57
:100A3000EA22EF500001CC13DECFE9FFDDCFEAFF61
:100A4000130EE926000EEA22EFCF00F0DECFE9FF19
:100A5000DDCFEAFF120EE926000EEA22EF50EA6A25
:100A6000CD0FE96E000EEA220050EF12DECFE9FF53
:100A7000DDCFEAFF020EE926000EEA22EECFDEFF0E
:100A8000EDCFDDFF030EDB50F21247D7040EE15C21
:100A900002E2E16AE552E16EE552E5CFDAFFE7CF27
:100AA000D9FF1200230EF36E010EF46E00D0120077
:100AB000D9CFE6FFDACFE6FFE1CFD9FFE2CFDAFF09
:100AC000E652E652E652E652E652FC0EDBCFE9FF72
:100AD000FD0EDBCFEAFF050EE926000EEA22EF50FD
:100AE000EA6AD40FE96E010EEA22020EEFCFDBFFB5
:100AF000FC0EDBCFE9FFFD0EDBCFEAFF060EE92699
:100B0000000EEA22E9CF00F0EACF01F0020EDB503E
:100B10000F010024E96E000E0120EA6EEF50EA6A30
:100B2000D40FE96E010EEA22030EEFCFDBFF030EB6
:100B3000DBCFE6FF020EDB50080DF350E552E72451
:100B4000E76E040EE7CFDBFF040EEA6ADB34FE0B30
:100B5000EA36E96E5C0EE926010EEA22EECFDEFFF0
:100B6000EDCFDDFFDECFE9FFDDCFEAFF0A0EE9269C
:100B7000000EEA22EE6AEE6AEE6AEE6AFA0EDBCF49
:100B80001AF0FB0EDBCF1BF0FA0E1AC0DBFFFB0ED8
:100B90001BC0DBFFF90EDB1C006EDECFE9FFDDCFF3
:100BA000EAFF0E0EE926000EEA220050EF16DECF15
:100BB000E9FFDDCFEAFF0F0EE926000EEA22F80E6C
:100BC000DBCFEFFFDECFE9FFDDCFEAFF0E0EE92638
:100BD000000EEA22EF50080B1EE1DECFE9FFDDCF69
:100BE000EAFF140EE926000EEA22EF500001CC13B2
:100BF000DECFE9FFDDCFEAFF130EE926000EEA2281
:100C0000EFCF00F0020EDB50EA6ACD0FE96E000E66
:100C1000EA220050EF12FC0EDBCFE6FFFD0EDBCF29
:100C2000E6FFDECFE6FFDDCFE6FF7CD9E552E552F9
:100C3000E552E552DECFE9FFDDCFEAFF080EE926F7
:100C4000000EEA22EE50ED1023E0DECFE9FFDDCF0B
:100C5000EAFF080EE926000EEA22EECFE6FFEFCF0C
:100C6000E6FFDECFE6FFDDCFE6FFCAD9E552E5526B
:100C7000E552E552DECFE9FFDDCFEAFF060EE926B9
:100C8000000EEA22FC0EDBCFEEFFFD0EDBCFEDFF08
:100C9000040EDB5000D0006E050EE15C02E2E16A5A
:100CA000E552E16E0050E552E5CFDAFFE7CFD9FF1C
:100CB0001200D9CFE6FFDACFE6FFE1CFD9FFE2CFCE
:100CC000DAFFE65254C1E9FF55C1EAFF060EE926F4
:100CD000000EEA22FC0EDBCFEEFFFD0EDBCFEDFFB8
:100CE00054C1E9FF55C1EAFF130EEB50026EFC0E32
:100CF000DBCFE9FFFD0EDBCFEAFF060EE926000E93
:100D0000EA22E9CF00F0EACF01F054C1E9FF55C172
:100D1000EAFF120EEB500F010024E96E000E0120D5
:100D2000EA6E0250EF1254C1E9FF55C1EAFF140EFA
:100D3000EB50006EFC0EDBCFE9FFFD0EDBCFEAFFD0
:100D4000050EE926000EEA220050EF1254C1E9FF19
:100D500055C1EAFF120EEB50DF6E54C1E9FF55C1D9
:100D6000EAFF130EEB50E81C006EDF50EA6ACD0F6D
:100D7000E96E000EEA220050EF16DF50EA6ACD0F4E
:100D8000E96E000EEA22EF5009E154C1E9FF55C1B6
:100D9000EAFF140EEB50E81C0001CC17E552E552B7
:100DA000E5CFDAFFE7CFD9FF1200D9CFE6FFDACFE0
:100DB000E6FFE1CFD9FFE2CFDAFFE652E652E65294
:100DC000E652E65254C1E9FF55C1EAFF060EEB6A4E
:100DD000070EEB6A54C1E9FF55C1EAFF080EE92688
:100DE000000EEA22FC0EDBCFEEFFFD0EDBCFEDFFA7
:100DF000FC0EDBCFDEFFDBCFDDFFDECFE9FFDDCF9B
:100E0000EAFF020EEECFDBFF030EEDCFDBFFD95082
:100E1000020FE96E000EDA20EA6EEE50ED1049E0A6
:100E200054C1E9FF55C1EAFF130EEB50026E020EEA
:100E3000DBCFE9FF030EDBCFEAFF060EE926000E4B
:100E4000EA22E9CF00F0EACF01F054C1E9FF55C131
:100E5000EAFF120EEB500F010024E96E000E012094
:100E6000EA6E0250EF1254C1E9FF55C1EAFF140EB9
:100E7000EB50006E020EDBCFE9FF030EDBCFEAFF83
:100E8000050EE926000EEA220050EF12D9CFE9FF45
:100E9000DACFEAFF020EEE26000EEF22DECFE9FFE8
:100EA000DDCFEAFF020EEECFDBFF030EEDCFDBFF5F
:100EB000AED754C1E9FF55C1EAFF120EEB50E76E01
:100EC000040EE7CFDBFF54C1E9FF55C1EAFF130E63
:100ED000EB50E81C006E040EDB50EA6ACD0FE96EA1
:100EE000000EEA220050EF16040EDB50EA6ACD0F26
:100EF000E96E000EEA22EF5009E154C1E9FF55C145
:100F0000EAFF140EEB50E81C0001CC17050EE15C63
:100F100002E2E16AE552E16EE552E5CFDAFFE7CFA2
:100F2000D9FF1200D9CFE6FFDACFE6FFE1CFD9FF34
:100F3000E2CFDAFFE652FC0EDBCFE9FFFD0EDBCF9E
:100F4000EAFF120EE926000EEA22EFCFDFFFFC0EC9
:100F5000DBCFE9FFFD0EDBCFEAFF130EE926000E23
:100F6000EA22EF1C026EFA0EDBCFE9FFFB0EDBCFAD
:100F7000EAFF060EE926000EEA22E9CF00F0EACFEA
:100F800001F0DF500F010024E96E000E0120EA6E2F
:100F90000250EF16FA0EDBCFE9FFFB0EDBCFEAFFC4
:100FA000060EE926000EEA22E9CF00F0EACF01F0B2
:100FB000DF500F010024E96E000E0120EA6EEF50B1
:100FC00018E1FC0EDBCFE9FFFD0EDBCFEAFF140ECC
:100FD000E926000EEA22EF1C006EFA0EDBCFE9FFD5
:100FE000FB0EDBCFEAFF050EE926000EEA220050D9
:100FF000EF16E552E552E5CFDAFFE7CFD9FF120051
:10100000D9CFE6FFDACFE6FFE1CFD9FFE2CFDAFFB3
:10101000070EE12402E3E168E652E16EFC0EDBCF4D
:10102000E9FFFD0EDBCFEAFF120EE926000EEA22F1
:10103000040EEFCFDBFFFC0EDBCFE9FFFD0EDBCFB5
:10104000EAFF140EE926000EEA22050EEFCFDBFFC1
:10105000FC0EDBCFE9FFFD0EDBCFEAFF130EE92626
:10106000000EEA22060EEFCFDBFFFA0EDBCFDEFF2B
:10107000DBCFDDFFDECFE9FFDDCFEAFF020EEECFF3
:10108000DBFF030EEDCFDBFFD950020FE96E000E40
:10109000DA20EA6EEE50ED1055E0060EDB1C026E13
:1010A000020EDBCFE9FF030EDBCFEAFF060EE926D7
:1010B000000EEA22E9CF00F0EACF01F0040EDB5087
:1010C0000F010024E96E000E0120EA6E0250EF16B7
:1010D000020EDBCFE9FF030EDBCFEAFF060EE926A7
:1010E000000EEA22E9CF00F0EACF01F0040EDB5057
:1010F0000F010024E96E000E0120EA6EEF500FE1AF
:10110000050EDB1C006E020EDBCFE9FF030EDBCF0A
:10111000EAFF050EE926000EEA220050EF16D9CFAD
:10112000E9FFDACFEAFF020EEE26000EEF22DECF55
:10113000E9FFDDCFEAFF020EEECFDBFF030EEDCFBE
:10114000DBFFA2D7070EE15C02E2E16AE552E16E45
:10115000E552E5CFDAFFE7CFD9FF1200D9CFE6FF9E
:10116000DACFE6FFE1CFD9FFE2CFDAFFE652FC0E9D
:10117000DBCFE9FFFD0EDBCFEAFF050EE926000E0F
:10118000EA22EF6ADF6A010EDF5C18E2FC0EDBCFB9
:10119000E9FFFD0EDBCFEAFF060EE926000EEA228C
:1011A000E9CF00F0EACF01F0DF500F010024E96E33
:1011B000000E0120EA6EEF6ADF2AE5D7E552E5521C
:1011C000E5CFDAFFE7CFD9FF1200D9CFE6FFDACFBC
:1011D000E6FFE1CFD9FFE2CFDAFF080EE12402E318
:1011E000E168E652E16E120EE66EE66AB60EE66E53
:1011F000000EE66EA9D9E552E552E552E552DE6AE7
:10120000DD6ADECF00F0DDCF01F0010E005C000EE4
:10121000015867E2DECF00F0DDCF01F0010E0026BD
:10122000000E0122020E00C0DBFF030E01C0DBFF37
:10123000DECF00F0DDCF01F0090E0102F3CF01F0A7
:10124000090E0002F3CF00F0F4500126B60E00267E
:10125000000E0122040E00C0DBFF050E01C0DBFF03
:10126000020EDBCF00F0030EDBCF01F0090E01020E
:10127000F3CF01F0090E0002F3CF00F0F450012685
:10128000B60E0026000E0122060E00C0DBFF070E80
:1012900001C0DBFF040EDBCFE9FF050EDBCFEAFF69
:1012A000EF6A040EDBCFE9FF050EDBCFEAFFEE525B
:1012B000060EDBCFEEFF070EDBCFEDFF040EDBCF1C
:1012C000E9FF050EDBCFEAFF070EE926000EEA2252
:1012D000760EEE6E430EED6EDF2A010E01E3DB2A81
:1012E00090D7DECF00F0DDCF01F0090E0102F3CF81
:1012F00001F0090E0002F3CF00F0F4500126B60E03
:101300000026000E0122040E00C0DBFF050E01C006
:10131000DBFF040EDBCFE9FF050EDBCFEAFFEF6A50
:10132000040EDBCFE9FF050EDBCFEAFF010EEB6A0F
:10133000020EEB6A040EDBCFE9FF050EDBCFEAFFFE
:10134000070EE926000EEA22760EEE6E430EED6ED3
:101350000001B60EB46F000EB56F080EE15C02E23C
:10136000E16AE552E16EE552E5CFDAFFE7CFD9FF5A
:1013700012000101D06BD16BD26BD36B0001C86B33
:101380000001C96B0001CF6B0001CE6B0001B06B97
:10139000B16BB26BB36B0001D06BD16BD26BD36B03
:1013A0001200D9CFE6FFDACFE6FFE1CFD9FFE2CFD7
:1013B000DAFFE6520001CC6BDF6A010EDF5C09E266
:1013C000DF50EA6ACD0FE96E000EEA22EF6ADF2AEB
:1013D000F4D70001CA6B0001CB6B0101586B596B4C
:1013E0000101546B556BE552E552E5CFDAFFE7CFCB
:1013F000D9FF1200040EE66ED40EE66E000EE66E05
:10140000000EE66EE66A220EE66E170EE66E000E1F
:10141000E66E9FEC17F0006E080EE15C02E2E16AF6
:10142000E552E16E00501200D9CFE6FFDACFE6FFB9
:10143000E1CFD9FFE2CFDAFF060EE12402E3E16853
:10144000E652E16E690EE66EE66A660EE66E010E23
:10145000E66E7AD8E552E552E552E5520A0EE66E9E
:10146000E66A5C0EE66E010EE66E6ED8E552E55257
:10147000E552E552DF6A040EDF5C38E2DF28E76EF2
:10148000010EE7CFDBFFDF50150DF3CF00F0F4CFF7
:1014900001F0660E0026010E0122020E00C0DBFFE5
:1014A000030E01C0DBFF010EDB50150DF3CF00F082
:1014B000F4CF01F0660E0026010E0122040E00C0DA
:1014C000DBFF050E01C0DBFF020EDBCFE9FF030EE1
:1014D000DBCFEAFF020EE926000EEA22040EDBCF84
:1014E000EEFF050EDBCFEDFFDF2AC5D7DF50150D70
:1014F000F3CF00F0F4CF01F0660E0026010E0122BA
:10150000020E00C0DBFF030E01C0DBFF020EDBCFCB
:10151000E9FF030EDBCFEAFF020EEB6A030EEB6A74
:1015200001015A6B5B6B0101660E566F010E576F1E
:10153000060EE15C02E2E16AE552E16EE552E5CFBA
:10154000DAFFE7CFD9FF1200D9CFE6FFDACFE6FF07
:10155000E1CFD9FFE2CFDAFFD950FA0FE96EFF0EE3
:10156000DA20EA6E000ED880EE54000EED5410E240
:10157000FC0EDBCFE9FFDB2AFD0EDBCFEAFF01E348
:10158000DB2AEF6AFA0EDB06FB0E01E2DB06E4D78C
:10159000E552E5CFDAFFE7CFD9FF1200D9CFE6FF5A
:1015A000DACFE6FFE1CFD9FFE2CFDAFFD950F80F6B
:1015B000E96EFF0EDA20EA6E000ED880EE54000EBF
:1015C000ED541DE2FA0EDBCFE9FFDB2AFB0EDBCF89
:1015D000EAFF01E3DB2AEF50E66EFC0EDBCFE9FF0A
:1015E000DB2AFD0EDBCFEAFF01E3DB2AE552E75001
:1015F000EF6EF80EDB06F90E01E2DB06D7D7E552F7
:10160000E5CFDAFFE7CFD9FF1200D9CFE6FFDACF77
:10161000E6FFE1CFD9FFE2CFDAFFE652DF6AC00E84
:10162000F214DF6E800ED0143F09F2160001C8518B
:1016300020E10001C9511DE125D80001CB51E96E1F
:10164000EA6AD890E936EA365C0EE926010EEA220B
:10165000EECF58F1EDCF59F10001CA510001CB5D39
:1016600008E00001B02B000EB123B223B32334EC09
:101670001EF0DF50F212E552E552E5CFDAFFE7CF78
:10168000D9FF1200D9CFE6FFDACFE6FFE1CFD9FFCD
:10169000E2CFDAFFE6520001CC51EA6AD40FE96EDC
:1016A000010EEA22EFCFDFFFDF50EA6ACD0FE96ECD
:1016B000000EEA22EF50EA6AD40FE96E010EEA2228
:1016C000EFCF00F0DF50080DF35000240001CB6F86
:1016D000E552E552E5CFDAFFE7CFD9FF1200D9CFC7
:1016E000E6FFDACFE6FFE1CFD9FFE2CFDAFFE6523D
:1016F000DF6AFC0EDBCFE9FFFD0EDBCFEAFFEF5028
:1017000007E0FC0EDB2AFD0E01E3DB2ADF2AF1D71E
:10171000DF5000D0E552E552E5CFDAFFE7CFD9FF41
:101720001200D9CFE6FFDACFE6FFE1CFD9FFE2CF53
:10173000DAFFE652DF6AFC0EDBCF1AF0FD0EDBCFDC
:101740001BF0FC0E1AC0DBFFFD0E1BC0DBFFC00E42
:10175000F214DF6E800ED0143F09F2160001D02B78
:10176000000ED123D223D323DF50F212EFEC1DF071
:10177000EED7E552E552E5CFDAFFE7CFD9FF120009
:10178000D9CFE6FFDACFE6FFE1CFD9FFE2CFDAFF2C
:10179000E652E652E652020EDB6AC00EF214E76E23
:1017A000020EE7CFDBFF800ED0143F09F21656C1C0
:1017B000DEFF57C1DDFFD9CFE9FFDACFEAFFEE50F8
:1017C000ED1001E172D1DECFE9FFDDCFEAFF020EBD
:1017D000E926000EEA22EECF56F1EDCF57F1020EC8
:1017E000DB50F212DECFE9FFDDCFEAFFFB0EDBCFED
:1017F000EEFFFC0EDBCFEDFFDECFE9FFDDCFEAFF32
:10180000100EE926000EEA22FD0EDBCFEFFFDECF41
:10181000E9FFDDCFEAFF0E0EE926000EEA22EF6AAD
:10182000DECFE9FFDDCFEAFF0F0EE926000EEA2248
:10183000EF6ADECFE9FFDDCFEAFF0A0EE926000EF0
:10184000EA22EE6AEE6AEE6AEE6AF10EDBCF1AF079
:10185000F20EDBCF1BF0F10E1AC0DBFFF20E1BC045
:10186000DBFFD950F30FE96EFF0EDA20EA6EF30EBC
:10187000EECFDBFFF40EEECFDBFFF50EEECFDBFF9E
:10188000F60EEECFDBFFF90EDBCF1AF0FA0EDBCF50
:101890001BF0F90E1AC0DBFFFA0E1BC0DBFFEF0EC8
:1018A000DBCF1AF0F00EDBCF1BF0EF0E1AC0DBFF20
:1018B000F00E1BC0DBFFF70EDBCF1AF0F80EDBCF0C
:1018C0001BF0F70E1AC0DBFFF80E1BC0DBFFFD0E8E
:1018D000DB40E840E8401F0BE66EDECFE9FFDDCFDE
:1018E000EAFF120EE926000EEA22E552E750EF6EFB
:1018F000FD0EDB50070BE66EDECFE9FFDDCFEAFF22
:10190000110EE926000EEA22E552E750EF6E010EB5
:10191000006E016A026A036ADECFE9FFDDCFEAFFEB
:10192000120EE926000EEA22EF501F0B07E0D890B6
:101930000036013602360336E806F9E1DECFE9FF6C
:10194000DDCFEAFF140EE926000EEA2200C0EFFF09
:10195000010E006E016A026A036ADECFE9FFDDCF85
:10196000EAFF110EE926000EEA22EF501F0B07E0F6
:10197000D8900036013602360336E806F9E1DECFAC
:10198000E9FFDDCFEAFF130EE926000EEA2200C0D0
:10199000EFFFDECFE9FFDDCFEAFF060EEB6A070EB1
:1019A000EB6ADECFE9FFDDCFEAFF080EEB6A090E36
:1019B000EB6ADECFE6FFDDCFE6FFE1EC1DF0E5529E
:1019C000E552DECFE6FFDDCFE6FFA9EC1DF0E552E4
:1019D000E552C00EF214E76E020EE7CFDBFF800E79
:1019E000D0143F09F216FD0EEA6ADB34FE0BEA362C
:1019F000E96E5C0EE926010EEA22DECFEEFFDDCFB6
:101A0000EDFFDECFE9FFDDCFEAFF020EE926000E93
:101A1000EA225AC1EEFF5BC1EDFFDECFE9FFDDCF69
:101A2000EAFF040EEB6A050EEB6A01015A515B11E5
:101A30000CE05AC1E9FF5BC1EAFF040EE926000E83
:101A4000EA22DECFEEFFDDCFEDFFDECF5AF1DDCFB4
:101A50005BF1DECFE9FFDDCFEAFF140EE926000ED1
:101A6000EA22EF500001CC13DECFE9FFDDCFEAFF21
:101A7000130EE926000EEA22EFCF00F0DECFE9FFD9
:101A8000DDCFEAFF120EE926000EEA22EF50EA6AE5
:101A9000CD0FE96E000EEA220050EF120001CF2BAD
:101AA000020EDB50F212000E05D0020EDB50F212D5
:101AB000420E00D0E552E552E552E552E5CFDAFF9D
:101AC000E7CFD9FF1200D9CFE6FFDACFE6FFE1CFAB
:101AD000D9FFE2CFDAFFE652E652010EDB6AFC0ED6
:101AE000DBCFE9FFFD0EDBCFEAFFEF5004080AE091
:101AF000FA0EDBCFE9FFFB0EDBCFEAFF010EEF6E44
:101B0000000E9ED00001C85100080AE2FA0EDBCF99
:101B1000E9FFFB0EDBCFEAFF020EEF6E000E90D066
:101B2000C00EF214E76E010EE7CFDBFF800ED0147B
:101B30003F09F216FC0EDBCFE9FFFD0EDBCFEAFF1B
:101B4000030EE926000EEA22EECF00F0EFCF01F0FF
:101B500001C000F0016A0050DF6EFC0EDBCFE9FF30
:101B6000FD0EDBCFEAFF030EE926000EEA22EECFE0
:101B700000F0EFCF01F0FF0E0016000E0116FF0E71
:101B8000001801E1015050E1FC0EDBCFE9FFFD0E32
:101B9000DBCFEAFF030EE926000EEA22EE6AED52E1
:101BA00054C1E9FF55C1EAFF100EEB50006E016A07
:101BB000FC0EDBCFE9FFFD0EDBCFEAFF030EE926CB
:101BC000000EEA220050EE120150ED12FC0EDBCFA7
:101BD000E9FFFD0EDBCFEAFFEE5254C1EEFF55C127
:101BE000EDFF54C1E9FF55C1EAFF100EEB50006E46
:101BF000DF50D88000540CE3010EDB50F212FA0ED5
:101C0000DBCFE9FFFB0EDBCFEAFF780EEF6E0AD0E9
:101C1000010EDB50F212FA0EDBCFE9FFFB0EDBCF39
:101C2000EAFFEF6A010E0CD0010EDB50F212FA0E41
:101C3000DBCFE9FFFB0EDBCFEAFFEF6A000E00D03F
:101C4000E552E552E552E5CFDAFFE7CFD9FF1200C2
:101C5000D9CFE6FFDACFE6FFE1CFD9FFE2CFDAFF57
:101C6000E652E652E652020EDB6A0001C851000855
:101C70000BE2FB0EDBCFE9FFFC0EDBCFEAFF100E21
:101C8000EF6EF36AF46AB1D0C00EF214E76E020E82
:101C9000E7CFDBFF800ED0143F09F216FD0EEA6A93
:101CA000DB34FE0BEA36E96E5C0EE926010EEA2211
:101CB000EE50ED100EE0020EDB50F212FB0EDBCF09
:101CC000E9FFFC0EDBCFEAFF280EEF6EF36AF46A41
:101CD0008CD0FD0EEA6ADB34FE0BEA36E96E5C0E50
:101CE000E926010EEA22010EEE6EED6AB4C0DEFFB7
:101CF000B5C0DDFFD9CFE9FFDACFEAFFEE50ED1036
:101D000020E1FD0EEA6ADB34FE0BEA36E96E5C0E7A
:101D1000E926010EEA22EE6AED6A020EDB50F212AB
:101D2000FB0EDBCFE9FFFC0EDBCFEAFF040EEF6E0C
:101D3000DECF00F0DDCF01F000C0F3FF01C0F4FF03
:101D400054D0B4C0E9FFB5C0EAFFEE52EECFB4F014
:101D5000EDCFB5F0020EDB50F212DECFE9FFDDCFA2
:101D6000EAFF040EEF6EFD0EDBCF00F000C001F0C5
:101D7000006AFF0E0012000E0112DECFE9FFDDCF78
:101D8000EAFF030EE926000EEA2200C0EEFF01C0C2
:101D9000EDFFDECFE9FFDDCFEAFF010EEB6A020EB9
:101DA000EB6ADECFE9FFDDCFEAFF070EE926000E82
:101DB000EA22760EEE6E430EED6EDECFE6FFDDCF4D
:101DC000E6FFAEEC08F0E552E552FB0EDBCFE9FF93
:101DD000FC0EDBCFEAFFEF6ADECF00F0DDCF01F0D3
:101DE00000C0F3FF01C0F4FF00D0E552E552E55218
:101DF000E552E5CFDAFFE7CFD9FF1200D9CFE6FFF2
:101E0000DACFE6FFE1CFD9FFE2CFDAFF080EE12417
:101E100002E3E168E652E16E070EDB6AFC0EDBCFFF
:101E2000E9FFFD0EDBCFEAFFEF50040813E0F90EE7
:101E3000DBCFE9FFFA0EDBCFEAFF010EEF6EFC0EFF
:101E4000DBCF00F0FD0EDBCF01F000C0F3FF01C0DF
:101E5000F4FFB8D10001C851000813E2F90EDBCF3E
:101E6000E9FFFA0EDBCFEAFF0F0EEF6EFC0EDBCFC1
:101E700000F0FD0EDBCF01F000C0F3FF01C0F4FF66
:101E8000A1D1C00EF214E76E070EE7CFDBFF800E84
:101E9000D0143F09F216FC0EDBCFE9FFFD0EDBCFBD
:101EA000EAFF050EE926000EEA22EF5003E0010EDC
:101EB000DF6E01D0DF6AFB0EDB50010A01E17CD04E
:101EC000010A01E05CD1DF505FE1FC0EDBCFE9FFEE
:101ED000FD0EDBCFEAFF070EE926000EEA22760EA2
:101EE000EE6E430EED6EFC0EDBCFE9FFFD0EDBCF99
:101EF000EAFF030EE926000EEA22EECF00F0EFCF54
:101F000001F001C000F0016A030E00C0DBFF030E08
:101F1000EA6ADB34FE0BEA36E96E5C0EE926010E56
:101F2000EA22EE6AED6AFC0EDBCFE9FFFD0EDBCFA5
:101F3000EAFFEF6AFC0EDBCFE9FFFD0EDBCFEAFF25
:101F4000EE52B4C0EEFFB5C0EDFFFC0EDBCFE9FFF3
:101F5000FD0EDBCFEAFF030EEB6A040EEB6AFC0E0C
:101F6000DBCFB4F0FD0EDBCFB5F0070EDB50F21285
:101F7000F90EDBCFE9FFFA0EDBCFEAFFEF6A010EC5
:101F8000DB6A020EDB6A17D0070EDB50F212F90E85
:101F9000DBCFE9FFFA0EDBCFEAFF490EEF6EFC0E56
:101FA000DBCF1AF0FD0EDBCF1BF0DE521AC0DEFFD6
:101FB0001BC0DDFFDD52FBD0FC0EDBCFE9FFFD0EC9
:101FC000DBCFEAFF030EE926000EEA22EECF00F097
:101FD000EFCF01F001C000F0016A030E00C0DBFF8B
:101FE000FC0EDBCFE9FFFD0EDBCFEAFF030EE92697
:101FF000000EEA22EECF00F0EFCF01F0FF0E001648
:10200000000E0116040E00C0DBFFFC0EDBCFE9FF63
:10201000FD0EDBCFEAFFEE52050EEECFDBFF060E24
:10202000EDCFDBFFD950050FE96E000EDA20EA6E26
:10203000EE50ED101EE0050EDBCFE9FF060EDBCF04
:10204000EAFF100EE926000EEA22EFCF00F0030EA1
:10205000DB50005C0EE1040EDBCFE6FF050EDBCFAC
:10206000E6FF060EDBCFE6FFA0EC16F0E552E552E8
:10207000E552FC0EDBCFE9FFFD0EDBCFEAFF050EDC
:10208000E926000EEA22EF5017E0E66A100EE66E2F
:10209000000EE66EE66AFC0EDBCFE6FFFD0EDBCF40
:1020A000E6FF58EC05F0006E060EE15C02E2E16A24
:1020B000E552E16E0050DDD7FC0EDBCFE9FFFD0EEF
:1020C000DBCFEAFF070EE926000EEA22760EEE6E5F
:1020D000430EED6EFC0EDBCFE9FFFD0EDBCFEAFF1A
:1020E000030EE926000EEA22EECF00F0EFCF01F05A
:1020F00001C000F0016A030E00C0DBFF030EEA6AB4
:10210000DB34FE0BEA36E96E5C0EE926010EEA22AC
:10211000EE6AED6AFC0EDBCFE9FFFD0EDBCFEAFFD6
:10212000EF6AFC0EDBCFE9FFFD0EDBCFEAFFEE52DC
:10213000B4C0EEFFB5C0EDFFFC0EDBCFE9FFFD0E36
:10214000DBCFEAFF030EEB6A040EEB6AFC0EDBCF7B
:10215000B4F0FD0EDBCFB5F0070EDB50F212DF045A
:1021600002E105EC0BF0F90EDBCFE9FFFA0EDBCF55
:10217000EAFFEF6A010EDB6A020EDB6A18D0070E77
:10218000DB50F212F90EDBCFE9FFFA0EDBCFEAFFEC
:10219000070EEF6EFC0EDBCF1AF0FD0EDBCF1BF04F
:1021A000DE521AC0DEFF1BC0DDFFDD5200D0010E83
:1021B000DBCF00F0020EDBCF01F000C0F3FF01C067
:1021C000F4FF00D0080EE15C02E2E16AE552E16E44
:1021D000E552E5CFDAFFE7CFD9FF1200D9CFE6FF0E
:1021E000DACFE6FFE1CFD9FFE2CFDAFF090EE12433
:1021F00002E3E168E652E16E080EDB6AFC0EDBCF1B
:10220000E9FFFD0EDBCFEAFFEF50040809E0F60E10
:10221000DBCFE9FFF70EDBCFEAFF010EEF6E70D3E5
:102220000001C851000809E2F60EDBCFE9FFF70E06
:10223000DBCFEAFF020EEF6E63D30001C951000845
:1022400009E2F60EDBCFE9FFF70EDBCFEAFF0D0E5A
:10225000EF6E56D3C00EF214E76E080EE7CFDBFF29
:10226000800ED0143F09F216FC0EDBCFE9FFFD0E05
:10227000DBCFEAFF030EE926000EEA22EECF00F0E4
:10228000EFCF01F001C000F0016A0050DF6EFC0EDC
:10229000DBCFE9FFFD0EDBCFEAFF030EE926000EE0
:1022A000EA22EECF02F0EFCF03F00250006E016A97
:1022B000FF0E001801E101504FE1FC0EDBCFE9FFFA
:1022C000FD0EDBCFEAFF030EE926000EEA22EE6ADE
:1022D000ED5254C1E9FF55C1EAFF100EEB50006EFC
:1022E000016AFC0EDBCFE9FFFD0EDBCFEAFF030E38
:1022F000E926000EEA220050EE120150ED12FC0E0B
:10230000DBCFE9FFFD0EDBCFEAFFEE5254C1EEFF5B
:1023100055C1EDFF54C1E9FF55C1EAFF100EEB5066
:10232000006EDF50D88000540CE3080EDB50F21230
:10233000F60EDBCFE9FFF70EDBCFEAFF780EEF6E8C
:102340000AD0080EDB50F212F60EDBCFE9FFF70ED3
:10235000DBCFEAFFEF6AD4D2FC0EDBCFE9FFFD0E44
:10236000DBCFEAFF030EE926000EEA22EECF00F0F3
:10237000EFCF01F0FF0E0016000E0116010E00C097
:10238000DBFFFC0EDBCFE9FFFD0EDBCFEAFFEE52F9
:10239000030EEECFDBFF040EEDCFDBFF030EDBCF32
:1023A000E9FF040EDBCFEAFF100EE926000EEA2259
:1023B000EFCF00F0DF50D880005401E306D2010EC9
:1023C000DBCF00F054C1E9FF55C1EAFF100EEB501E
:1023D000D880005401E3F9D1030EDBCFE9FF040EEE
:1023E000DBCFEAFF120EE926000EEA22070EEFCF3E
:1023F000DBFF030EDBCFE9FF040EDBCFEAFF130E9A
:10240000E926000EEA22EFCF00F0070EDB50EA6A61
:10241000CD0FE96E000EEA22EF50001431E0030EFA
:10242000DBCFE9FF040EDBCFEAFF130EE926000E37
:10243000EA22EF1C006E070EDB50EA6ACD0FE96E50
:10244000000EEA220050EF16070EDB50EA6ACD0FAD
:10245000E96E000EEA22EF500DE1030EDBCFE9FF3B
:10246000040EDBCFEAFF140EE926000EEA22EF1C71
:102470000001CC17010EF36E020EF3CFDBFF7CD010
:10248000030EDBCFE9FF040EDBCFEAFF060EE926E1
:10249000000EEA22050EEECFDBFF060EEDCFDBFFCE
:1024A000D950050FE96E000EDA20EA6EEE50ED10FD
:1024B00061E0030EDBCFE9FF040EDBCFEAFF120E73
:1024C000E926000EEA22070EEFCFDBFF030EDBCF7B
:1024D000E9FF040EDBCFEAFF130EE926000EEA2225
:1024E000EF1C026E050EDBCFE9FF060EDBCFEAFF25
:1024F000060EE926000EEA22E9CF00F0EACF01F04D
:10250000070EDB500F010024E96E000E0120EA6E79
:102510000250EF16050EDBCFE9FF060EDBCFEAFF18
:10252000060EE926000EEA22E9CF00F0EACF01F01C
:10253000070EDB500F010024E96E000E0120EA6E49
:10254000EF5018E1030EDBCFE9FF040EDBCFEAFF0B
:10255000140EE926000EEA22EF1C006E050EDBCFFA
:10256000E9FF060EDBCFEAFF050EE926000EEA22A0
:102570000050EF16020EDB6A030EDBCFE9FF040EFC
:10258000DBCFEAFF100EE926000EEA22DFCFEFFFD5
:10259000030EDBCFE9FF040EDBCFEAFF100EE926C6
:1025A000000EEA22EF50E840E840E8401F0BE66EDC
:1025B000030EDBCFE9FF040EDBCFEAFF120EE926A4
:1025C000000EEA22E552E750EF6E030EDBCFE9FF83
:1025D000040EDBCFEAFF100EE926000EEA22EF50D0
:1025E000070BE66E030EDBCFE9FF040EDBCFEAFF3D
:1025F000110EE926000EEA22E552E750EF6E010EB9
:10260000006E016A026A036A030EDBCFE9FF040E63
:10261000DBCFEAFF120EE926000EEA22EF501F0B75
:1026200007E0D8900036013602360336E806F9E1B5
:10263000030EDBCFE9FF040EDBCFEAFF140EE92621
:10264000000EEA2200C0EFFF010E006E016A026A6E
:10265000036A030EDBCFE9FF040EDBCFEAFF110EA6
:10266000E926000EEA22EF501F0B07E0D890003653
:10267000013602360336E806F9E1030EDBCFE9FF47
:10268000040EDBCFEAFF130EE926000EEA2200C09B
:10269000EFFF020EDB042CE1030EDBCFE9FF040E9B
:1026A000DBCFEAFF140EE926000EEA22EF5000010C
:1026B000CC13030EDBCFE9FF040EDBCFEAFF130ED2
:1026C000E926000EEA22EFCF00F0030EDBCFE9FF90
:1026D000040EDBCFEAFF120EE926000EEA22EF50CD
:1026E000EA6ACD0FE96E000EEA220050EF125ED0CA
:1026F000030EDBCFE9FF040EDBCFEAFF060EE9266F
:10270000000EEA22050EEECFDBFF060EEDCFDBFF5B
:10271000D950050FE96E000EDA20EA6EEE50ED108A
:1027200045E0030EDBCFE9FF040EDBCFEAFF140E1A
:10273000E926000EEA22EFCF00F0050EDBCFE9FF1D
:10274000060EDBCFEAFF050EE926000EEA22005056
:10275000EF12030EDBCFE9FF040EDBCFEAFF130E0F
:10276000E926000EEA22EFCF02F0050EDBCFE9FFEB
:10277000060EDBCFEAFF060EE926000EEA22E9CFBD
:1027800000F0EACF01F0030EDBCFE9FF040EDBCF50
:10279000EAFF120EE926000EEA22EF500F01002494
:1027A000E96E000E0120EA6E0250EF12EA6ADF3491
:1027B000FE0BEA36E96E5C0EE926010EEA22030EF4
:1027C000DBCFEEFF040EDBCFEDFF54C1E9FF55C1B7
:1027D000EAFF0E0EE926000EEA22EF8854C1E9FF57
:1027E00055C1EAFF0F0EE926000EEA22EF6A54C136
:1027F000E9FF55C1EAFF0A0EE926000EEA22F80EAB
:10280000DBCFEEFFF90EDBCFEEFFFA0EDBCFEEFFF4
:10281000FB0EDBCFEEFFFC0EDBCFE6FFFD0EDBCFCA
:10282000E6FF59EC06F0E552E552080EDB50F212D5
:1028300005EC0BF0C00EF214E76E080EE7CFDBFFDD
:10284000800ED0143F09F21654C1E9FF55C1EAFFCA
:102850000F0EEB50010A16E0030A0BE0020A01E03A
:1028600011D0F60EDBCFE9FFF70EDBCFEAFFEF6A00
:1028700022D0F60EDBCFE9FFF70EDBCFEAFF0E0E1C
:10288000EF6E19D0FC0EDBCFE6FFFD0EDBCFE6FFCF
:1028900054C1E6FF55C1E6FF92EC07F0E552E55260
:1028A000E552E552F60EDBCFE9FFF70EDBCFEAFF8C
:1028B0000A0EEF6E00D054C1E9FF55C1EAFF0E0EBB
:1028C000E926000EEA22EF6A54C1E9FF55C1EAFF8A
:1028D0000F0EE926000EEA22EF6A54C1E9FF55C146
:1028E000EAFF060EEB6A070EEB6A54C1E9FF55C119
:1028F000EAFF080EEB6A090EEB6A080EDB50F212D3
:10290000090EE15C02E2E16AE552E16EE552E5CFD3
:10291000DAFFE7CFD9FF1200D9CFE6FFDACFE6FF23
:10292000E1CFD9FFE2CFDAFFE652E652E652020EDD
:10293000DB6A0001C851000802E2050E03D1FC0E5B
:10294000DBCFE9FFFD0EDBCFEAFFEF50040802E02A
:10295000010EF8D0C00EF214E76E020EE7CFDBFFD7
:10296000800ED0143F09F216FC0EDBCFE9FFFD0EFE
:10297000DBCFEAFF030EE926000EEA22EECF00F0DD
:10298000EFCF01F001C000F0016A0050DF6EFC0ED5
:10299000DBCFE9FFFD0EDBCFEAFF030EE926000ED9
:1029A000EA22EECF00F0EFCF01F0FF0E0016000E8E
:1029B0000116010E00C0DBFFFC0EDBCFE9FFFD0EB0
:1029C000DBCFEAFFEE52EECF00F0EFCF01F0005088
:1029D0000101541902E10150551905E0020EDB50C6
:1029E000F212640EAFD054C1E9FF55C1EAFF100ED8
:1029F000EB50006EDF50005C0BE1010EDBCFE6FF19
:102A000054C1E6FF55C1E6FF9BD9E552E552E552B8
:102A1000EA6ADF34FE0BEA36E96E5C0EE926010E47
:102A2000EA22010EEE6EED6AFC0EDBCFE9FFFD0E31
:102A3000DBCFEAFF050EE926000EEA22EF5067E041
:102A4000E66A100EE66E000EE66EE66AFC0EDBCF5E
:102A5000E6FFFD0EDBCFE6FF58EC05F0006E060E3C
:102A6000E15C02E2E16AE552E16E0050E76E010EC0
:102A7000E7CFDBFFFC0EDBCFE9FFFD0EDBCFEAFF8C
:102A8000030EE926000EEA22EE6AED52010EDB503B
:102A9000006E016AFC0EDBCFE9FFFD0EDBCFEAFF23
:102AA000030EE926000EEA220050EE120150ED124C
:102AB000010EEA6ADB34FE0BEA36E96E5C0EE926AB
:102AC000010EEA22EECF00F0EFCF01F0FC0EDBCFDB
:102AD000E9FFFD0EDBCFEAFFEE5200C0EEFF01C0C2
:102AE000EDFF010EDBCF00F0DF50D880005408E38B
:102AF000020EDB50F21205EC0BF0780E23D007D05B
:102B0000020EDB50F21205EC0BF0000E1BD0FC0E97
:102B1000DBCFE9FFFD0EDBCFEAFF030EE926000E57
:102B2000EA22EE68ED52FC0EDBCFE9FFFD0EDBCFB3
:102B3000EAFF010EEB6A020EEB6A020EDB50F212A4
:102B4000000E00D0E552E552E552E552E5CFDAFF3E
:102B5000E7CFD9FF1200D9CFE6FFDACFE6FFE1CF0A
:102B6000D9FFE2CFDAFF060EE12402E3E168E65284
:102B7000E16E050EDB6A0001C851000802E2060E94
:102B8000D1D0FC0EDBCFE9FFFD0EDBCFEAFFEF502B
:102B9000040802E0010EC6D0C00EF214E76E050E66
:102BA000E7CFDBFF800ED0143F09F216FC0EDBCF1F
:102BB000E9FFFD0EDBCFEAFF030EE926000EEA2255
:102BC000EECF00F0EFCF01F001C000F0016AFA0E85
:102BD000DBCFE9FFFB0EDBCFEAFF040EE926000E98
:102BE000EA2200C0EFFFFC0EDBCFE9FFFD0EDBCFDA
:102BF000EAFF030EE926000EEA22EECF00F0EFCF47
:102C000001F0FF0E0016000E0116FA0EDBCFE9FFF1
:102C1000FB0EDBCFEAFF030EE926000EEA2200C01E
:102C2000EFFFFA0EDBCFE9FFFB0EDBCFEAFF030E6F
:102C3000E926000EEA22EF50FF080DE1FA0EDBCF85
:102C4000E9FFFB0EDBCFEAFF020EE926000EEA22C7
:102C5000010EEF6E0BD0FA0EDBCFE9FFFB0EDBCFE0
:102C6000EAFF020EE926000EEA22EF6AFC0EDBCF35
:102C7000E9FFFD0EDBCFEAFF050EE926000EEA2292
:102C8000EF50E66EFA0EDBCFE9FFFB0EDBCFEAFF7B
:102C9000EE52E552E750EF6EFC0EDBCFE9FFFD0E82
:102CA000DBCFEAFF060EE926000EEA22E9CF00F0AC
:102CB000EACF01F0010E00C0DBFF020E01C0DBFF16
:102CC000FA0EDBCFE9FFFB0EDBCFEAFFE9CF00F026
:102CD000EACF01F0030E00C0DBFF040E01C0DBFFF2
:102CE000DF6A010EDF5C19E2010EDBCFE9FFDB2AB0
:102CF000020EDBCFEAFF01E3DB2AEF50E66E030EA4
:102D0000DBCFE9FFDB2A040EDBCFEAFF01E3DB2A9E
:102D1000E552E750EF6EDF2AE4D7050EDB50F212E2
:102D2000000E00D0006E060EE15C02E2E16AE552A0
:102D3000E16E0050E552E5CFDAFFE7CFD9FF120090
:102D4000D9CFE6FFDACFE6FFE1CFD9FFE2CFDAFF56
:102D5000E652FC0EDBCFE9FFFD0EDBCFEAFF120EE1
:102D6000E926000EEA22EFCFDFFFFC0EDBCFE9FF02
:102D7000FD0EDBCFEAFF130EE926000EEA22EF1C60
:102D8000006EDF50EA6ACD0FE96E000EEA220050B5
:102D9000EF16DF50EA6ACD0FE96E000EEA22EF501F
:102DA0000DE1FC0EDBCFE9FFFD0EDBCFEAFF140ED9
:102DB000E926000EEA22EF1C0001CC17FC0EDBCF47
:102DC000E9FFFD0EDBCFEAFF100EE926000EEA2236
:102DD000FB0EDBCFEFFFFB0EDBCFCAF0FB0EDB40C1
:102DE000E840E8401F0B070BE66EFC0EDBCFE9FF67
:102DF000FD0EDBCFEAFF120EE926000EEA22E552B5
:102E0000E750EF6EFB0EDB50070BE66EFC0EDBCFE0
:102E1000E9FFFD0EDBCFEAFF110EE926000EEA22E4
:102E2000E552E750EF6E010E006E016A026A036A16
:102E3000FC0EDBCFE9FFFD0EDBCFEAFF120EE92629
:102E4000000EEA22EF501F0B07E0D8900036013643
:102E500002360336E806F9E1FC0EDBCFE9FFFD0E92
:102E6000DBCFEAFF140EE926000EEA2200C0EFFFD6
:102E7000010E006E016A026A036AFC0EDBCFE9FFF5
:102E8000FD0EDBCFEAFF110EE926000EEA22EF501D
:102E90001F0B07E0D8900036013602360336E806ED
:102EA000F9E1FC0EDBCFE9FFFD0EDBCFEAFF130EED
:102EB000E926000EEA2200C0EFFFFC0EDBCFE9FF9F
:102EC000FD0EDBCFEAFF140EE926000EEA22EF50DA
:102ED0000001CC13FC0EDBCFE9FFFD0EDBCFEAFFD8
:102EE000130EE926000EEA22EFCF00F0FC0EDBCF36
:102EF000E9FFFD0EDBCFEAFF120EE926000EEA2203
:102F0000EF50EA6ACD0FE96E000EEA220050EF1290
:102F1000FB0EEA6ADB34FE0BEA36E96E5C0EE9264C
:102F2000010EEA22FC0EDBCFEEFFFD0EDBCFEDFF44
:102F3000E552E552E5CFDAFFE7CFD9FF1200D9CF4E
:102F4000E6FFDACFE6FFE1CFD9FFE2CFDAFFE652C4
:102F5000E652E652E652030EDB6AC00EF214E76E4A
:102F6000030EE7CFDBFF800ED0143F09F2160001FD
:102F7000C851000805E2030EDB50F2123C0E93D05C
:102F8000F60EEA6ADB34FE0BEA36E96E5C0EE926E1
:102F9000010EEA22EE50ED1001E080D0F60EEA6A52
:102FA000DB34FE0BEA36E96E5C0EE926010EEA22FE
:102FB000010EEE6EED6A030EDB50F212000EE66EAD
:102FC000E66AF70EDBCFE6FFF80EDBCFE6FFF90E81
:102FD000DBCFE6FFFA0EDBCFE6FFFB0EDBCFE6FF33
:102FE000FC0EDBCFE6FFFD0EDBCFE6FF9FEC1CF017
:102FF000006E090EE15C02E2E16AE552E16E00500A
:10300000F3CFDEFFF4CFDDFF000EE66EE66A000EC2
:10301000E66EE66AE66AE66AE66AE66A000EE66E6A
:10302000E66A000EE66EE66ADECFE6FFDDCFE6FF7B
:10303000F60EDBCFE6FFC0EC0BF0006E0F0EE15C8E
:1030400002E2E16AE552E16E0050E76E020EE7CF60
:10305000DBFF020EDB5006E10001CE0502E105ECCC
:103060000BF019D0C00EF214E76E030EE7CFDBFFB2
:10307000800ED0143F09F216F60EEA6ADB34FE0B1E
:10308000EA36E96E5C0EE926010EEA22EE6AED6A86
:10309000030EDB50F212020EDB5005D0030EDB50A4
:1030A000F212280E00D0006E040EE15C02E2E16A2A
:1030B000E552E16E0050E552E5CFDAFFE7CFD9FFE8
:1030C0001200D9CFE6FFDACFE6FFE1CFD9FFE2CF9A
:1030D000DAFFE652E652E652020EDB6AC00EF21446
:1030E000E76E020EE7CFDBFF800ED0143F09F21629
:1030F000FD0EEA6ADB34FE0BEA36E96E5C0EE92669
:10310000010EEA22EECFDEFFEDCFDDFFD9CFE9FFE2
:10311000DACFEAFFEE50ED1005E1020EDB50F212BD
:10312000460E7DD0D9CFE9FFDACFEAFF010EEE18C7
:1031300001E1ED5005E1020EDB50F212430E6FD0BB
:10314000DECFE9FFDDCFEAFF0E0EE926000EEA2210
:10315000EF50080B5FE0DECFE9FFDDCFEAFF0E0E98
:10316000E926000EEA22EF96DECFE9FFDDCFEAFF87
:103170000E0EE926000EEA22EF5047E1DECFE9FF0E
:10318000DDCFEAFF0A0EE926000EEA22EECF00F0BC
:10319000EECF01F0EECF02F0EFCF03F000500110C0
:1031A000021003102EE1DECFE9FFDDCFEAFF140E9F
:1031B000E926000EEA22EF500001CC13DECFE9FF32
:1031C000DDCFEAFF130EE926000EEA22EFCF00F072
:1031D000DECFE9FFDDCFEAFF120EE926000EEA227C
:1031E000EF50EA6ACD0FE96E000EEA220050EF12AE
:1031F000020EDB50F2120001CE0502E105EC0BF0ED
:1032000003D0020EDB50F21203D0020EDB50F2129A
:10321000000E05D0020EDB50F212440E00D0E55233
:10322000E552E552E552E5CFDAFFE7CFD9FF1200CC
:10323000D9CFE6FFDACFE6FFE1CFD9FFE2CFDAFF61
:10324000E652E652E652E652E652040EDB6AC00E41
:10325000F214E76E040EE7CFDBFF800ED0143F09B7
:10326000F216FD0EDB50FF080DE154C1E9FF55C118
:10327000EAFF100EEB50E76EFD0EE7CFDBFF010E0D
:10328000DF6E0FD054C1E9FF55C1EAFF100EEB50BD
:10329000F36EFD0EDB50F35C03E1010EDF6E01D037
:1032A000DF6AFD0EEA6ADB34FE0BEA36E96E5C0E7D
:1032B000E926010EEA22010EEECFDBFF020EEDCF72
:1032C000DBFFD950010FE96E000EDA20EA6EEE50F6
:1032D000ED1005E1040EDB50F212480E5CD0D9501F
:1032E000010FE96E000EDA20EA6E010EEE1801E120
:1032F000ED5005E1040EDB50F212430E4CD0010EEE
:10330000DBCFE9FF020EDBCFEAFF120EE926000E4B
:10331000EA22030EEFCFDBFF010EDBCFE9FF020E47
:10332000DBCFEAFF130EE926000EEA22EF1C006E47
:10333000030EDB50EA6ACD0FE96E000EEA22005060
:10334000EF16030EDB50EA6ACD0FE96E000EEA229B
:10335000EF500DE1010EDBCFE9FF020EDBCFEAFFFC
:10336000140EE926000EEA22EF1C0001CC17010E14
:10337000DBCFE9FF020EDBCFEAFF0E0EE926000EDF
:10338000EA22EF86040EDB50F212DF0402E105ECC4
:103390000BF0000E00D0006E050EE15C02E2E16A67
:1033A000E552E16E0050E552E5CFDAFFE7CFD9FFF5
:1033B000120054C1E6FF55C1E6FFC5EC1DF0E55211
:1033C000E552640EE66EE66AE66AE66A06D8E552FB
:1033D000E552E552E552F5D71200D9CFE6FFDACF34
:1033E000E6FFE1CFD9FFE2CFDAFFE652E652010E67
:1033F000DB6A0001C851000801E260D00001C95138
:10340000000801E25BD0D950FA0FE96EFF0EDA2016
:10341000EA6ED880000EEE54000EEE54000EEE540C
:10342000000EEE544BE2C00EF214E76E010EE7CF31
:10343000DBFF800ED0143F09F21654C1E9FF55C1DD
:10344000EAFF120EEB50DF6E54C1E9FF55C1EAFFEF
:10345000130EEB50E81C006EDF50EA6ACD0FE96EE8
:10346000000EEA220050EF16DF50EA6ACD0FE96E37
:10347000000EEA22EF5009E154C1E9FF55C1EAFF0D
:10348000140EEB50E81C0001CC1754C1E9FF55C1E4
:10349000EAFF0A0EE926000EEA22FA0EDBCFEEFF63
:1034A000FB0EDBCFEEFFFC0EDBCFEEFFFD0EDBCF26
:1034B000EEFF010EDB50F21205EC0BF0E552E55287
:1034C000E552E5CFDAFFE7CFD9FF1200D9CFE6FF0B
:1034D000DACFE6FFE1CFD9FFE2CFDAFFE652E652DC
:1034E000E652E6520001C851000802E2550ED7D05C
:1034F0000001C951000802E2320ED1D0FD0EDBCF2F
:1035000004F0056A066A076A100E1D6E0E0E1E6E26
:103510001F6A206A04C018F005C019F006C01AF02E
:1035200007C01BF0FCEC20F014C004F015C005F03F
:1035300016C006F017C007F0FC0EDBCF08F0096AD2
:103540000A6A0B6A3C0E1D6E1E6A1F6A206A08C05A
:1035500018F009C019F00AC01AF00BC01BF0FCECFF
:1035600020F014C008F015C009F016C00AF017C00A
:103570000BF008500426095005220A5006220B5071
:103580000722FB0EDBCF0CF00D6A0E6A0F6A0450A7
:103590000C24006E05500D20016E06500E20026EA8
:1035A00007500F20036E640E1D6E1E6A1F6A206A8C
:1035B00000C018F001C019F002C01AF003C01BF0DF
:1035C000FCEC20F014C000F015C001F016C002F0B1
:1035D00017C003F0F90EDBCF10F0FA0EDBCF11F0BD
:1035E000126A136A050E1026000E1122000E122216
:1035F000000E1322640E1D6E1E6A1F6A206A10C020
:1036000018F011C019F012C01AF013C01BF0FCEC36
:1036100020F014C010F015C011F016C012F017C041
:1036200013F0E80E1D6E030E1E6E1F6A206A10C096
:1036300018F011C019F012C01AF013C01BF034ECCE
:1036400021F018C010F019C011F01AC012F01BC000
:1036500013F0105000261150012212500222135074
:10366000032200C0DFFF010E01C0DBFF020E02C01B
:10367000DBFF030E03C0DBFFD9CFE9FFDACFEAFFA0
:10368000EECFE6FFEECFE6FFEECFE6FFEFCFE6FFB1
:10369000A4DEE552E552E552E552000E00D0006E80
:1036A000040EE15C02E2E16AE552E16E0050E5528F
:1036B000E5CFDAFFE7CFD9FF1200D9CFE6FFDACFA7
:1036C000E6FFE1CFD9FFE2CFDAFFE652E652E6525B
:1036D000020EDB6A040EF36EFD0EDBCFF4FFF35037
:1036E000F45C02E32A0EBED0C00EF214E76E020EA6
:1036F000E7CFDBFF800ED0143F09F216FD0EEA6A19
:10370000DB34FE0BEA36E96E5C0EE926010EEA2296
:10371000EECFDEFFEDCFDDFFD9CFE9FFDACFEAFF55
:10372000EE50ED1005E1020EDB50F212430E9AD07E
:10373000D9CFE9FFDACFEAFF010EEE1801E1ED5033
:1037400005E1020EDB50F212430E8CD0DECFE9FF12
:10375000DDCFEAFF0A0EE926000EEA22EECF00F0E6
:10376000EECF01F0EECF02F0EFCF03F000500110EA
:103770000210031005E1020EDB50F212500E72D05F
:10378000DECFE9FFDDCFEAFF0A0EE926000EEA22CE
:10379000EE6AEE6AEE6AEE6ADECFE9FFDDCFEAFF9F
:1037A0000E0EE926000EEA22EF50370B17E0C80E86
:1037B000006EDECFE9FFDDCFEAFF0E0EE926000E38
:1037C000EA220050EF16DECFE9FFDDCFEAFF0F0E51
:1037D000E926000EEA22010EEF6E09D0DECFE9FFE6
:1037E000DDCFEAFF0F0EE926000EEA22EF6ADECFF8
:1037F000E9FFDDCFEAFF0E0EE926000EEA22EF50C8
:10380000080B2BE1DECFE9FFDDCFEAFF140EE9263E
:10381000000EEA22EF500001CC13DECFE9FFDDCF2E
:10382000EAFF130EE926000EEA22EFCF00F0DECF0A
:10383000E9FFDDCFEAFF120EE926000EEA22EF5083
:10384000EA6ACD0FE96E000EEA220050EF12020E76
:10385000DB50F21205EC0BF003D0020EDB50F2123B
:10386000000E00D0E552E552E552E552E5CFDAFF11
:10387000E7CFD9FF1200D9CFE6FFDACFE6FFE1CFDD
:10388000D9FFE2CFDAFFE652E652E652E652E652BE
:10389000040EDB6AC00EF214E76E040EE7CFDBFF06
:1038A000800ED0143F09F216D0C1DFFF010ED1C146
:1038B000DBFF020ED2C1DBFF030ED3C1DBFF040E20
:1038C000DB50F212DECF18F0DECF19F0DECF1AF0A7
:1038D000DDCF1BF0DD52DD5200D0050EE15C02E2CF
:1038E000E16AE552E16EE552E5CFDAFFE7CFD9FFB5
:1038F0001200D9CFE6FFDACFE6FFE1CFD9FFE2CF62
:10390000DAFFE652DF6AC00EF214DF6E800ED014CA
:103910003F09F216FA0EDBCFD0F1FB0EDBCFD1F16F
:10392000FC0EDBCFD2F1FD0EDBCFD3F1DF50F21274
:0E393000E552E552E5CFDAFFE7CFD9FF1200EE
:02393E00D9CFDF
:10394000E6FFDACFE6FFE1CFD9FFE2CFDAFFE652BA
:10395000E652F70EDBCFDEFFDBCFDDFFDFCFE9FF87
:10396000DF2A010EDBCFEAFF01E3DB2AF90EDBCF12
:10397000EFFFDFCFE9FFDF2A010EDBCFEAFF01E334
:10398000DB2AFA0EDBCFEFFFDFCFE9FFDF2A010EE4
:10399000DBCFEAFF01E3DB2AEF68DFCFE9FFDF2AB5
:1039A000010EDBCFEAFF01E3DB2A1A0EEF6EDFCF59
:1039B000E9FFDF2A010EDBCFEAFF01E3DB2A1B0E62
:1039C000EF6EDFCFE9FFDF2A010EDBCFEAFF01E375
:1039D000DB2A1C0EEF6EDFCFE9FFDF2A010EDBCF03
:1039E000EAFF01E3DB2A1D0EEF6EDFCFE9FFDF2ADE
:1039F000010EDBCFEAFF01E3DB2A1E0EEF6EDFCF05
:103A0000E9FFDF2A010EDBCFEAFF01E3DB2A1F0E0D
:103A1000EF6EDFCFE9FFDF2A010EDBCFEAFF01E324
:103A2000DB2A2A0EEF6EDFCFE9FFDF2A010EDBCFA4
:103A3000EAFF01E3DB2A2B0EEF6EDFCFE9FFDF2A7F
:103A4000010EDBCFEAFF01E3DB2A2C0EEF6EDFCFA6
:103A5000E9FFDF2A010EDBCFEAFF01E3DB2A2D0EAF
:103A6000EF6EDFCFE9FFDF2A010EDBCFEAFF01E3D4
:103A7000DB2A2E0EEF6EDFCFE9FFDF2A010EDBCF50
:103A8000EAFF01E3DB2A2F0EEF6EDFCFE9FFDF2A2B
:103A9000010EDBCFEAFF01E3DB2A3A0EEF6EDFCF48
:103AA000E9FFDF2A010EDBCFEAFF01E3DB2A3B0E51
:103AB000EF6EDFCFE9FFDF2A010EDBCFEAFF01E384
:103AC000DB2A3C0EEF6EDFCFE9FFDF2A010EDBCFF2
:103AD000EAFF01E3DB2A3D0EEF6EDFCFE9FFDF2ACD
:103AE000010EDBCFEAFF01E3DB2AFB0EDBCFEFFFAA
:103AF000DFCFE9FFDF2A010EDBCFEAFF01E3DB2A9C
:103B0000FC0EDBCFEFFFDFCFE9FFDF2A010EDBCFBB
:103B1000EAFF01E3DB2AFD0EDBCFEFFFDFCFE9FF9A
:103B2000DF2A010EDBCFEAFF01E3DB2A010EEF6E95
:103B3000DECF00F0DDCF01F000C0F3FF01C0F4FFE5
:103B400000D0E552E552E552E5CFDAFFE7CFD9FFE5
:103B50001200D9CFE6FFDACFE6FFE1CFD9FFE2CFFF
:103B6000DAFFE552E5CFDAFFE7CFD9FF1200D9CF70
:103B7000E6FFDACFE6FFE1CFD9FFE2CFDAFFE55289
:103B8000E5CFDAFFE7CFD9FF1200D9CFE6FFDACFD2
:103B9000E6FFE1CFD9FFE2CFDAFFE552E5CFDAFF6A
:103BA000E7CFD9FF120004001200120093948A504C
:103BB000040B01E0010E010AE8B08A84E8A08A94AF
:103BC0001200D9CFE6FFDACFE6FFE1CFD9FFE2CF8F
:103BD000DAFFE552E5CFDAFFE7CFD9FF1200120096
:103BE00012001200E0DF0001010ECE6F58C1E9FFA4
:103BF00059C1EAFFEECFE1FFEDCFE2FF1F0EFC144B
:103C000002E00600FBD7FC5001E0FC6AE552E550FB
:103C1000E96E0500E550FF6EE550FE6EE550FD6E65
:103C2000E906F7E1E5CF1BF0E5CF1AF0E5CF19F093
:103C3000E5CF18F0E5CFF4FFE5CFF3FFE5CFF8FFD0
:103C4000E5CFF7FFE5CFF6FFE5CFDAFFE7CFD9FF06
:103C5000E552E5CFEAFFE5CFE9FFE550E5CFE0FF2C
:103C6000E5CFD8FF10001200800ED0143F09F216E5
:103C7000D8CFE4FFE0CFE4FFE46EE9CFE4FFEACF82
:103C8000E4FFE652D9CFE6FFDACFE6FFF6CFE6FF54
:103C9000F7CFE6FFF8CFE6FFF3CFE6FFF4CFE6FF7E
:103CA00018C0E6FF19C0E6FF1AC0E6FF1BC0E6FF1A
:103CB000E96A1F0EFC1409E0FDCFE6FFFECFE6FF28
:103CC000FFCFE6FF0600E92AF4D7E9CFE6FFFC5074
:103CD00001E0FC6A54C1E9FF55C1EAFFE1CFEEFF04
:103CE000E2CFEDFF60DF58C154F159C155F1CBC0AF
:103CF000CAF058C1E9FF59C1EAFFEECFE1FFEDCFAD
:103D0000E2FFE552E550E96E0500E550FF6EE55033
:103D1000FE6EE550FD6EE906F7E1E5CF1BF0E5CF5D
:103D20001AF0E5CF19F0E5CF18F0E5CFF4FFE5CFB5
:103D3000F3FFE5CFF8FFE5CFF7FFE5CFF6FFE5CFDF
:103D4000DAFFE7CFD9FFE552E5CFEAFFE5CFE9FF9C
:103D5000E550E5CFE0FFE5CFD8FF10001200D8CF47
:103D6000E4FFE0CFE4FFE46EE9CFE4FFEACFE4FF55
:103D7000E652D9CFE6FFDACFE6FFF6CFE6FFF7CF80
:103D8000E6FFF8CFE6FFF3CFE6FFF4CFE6FF18C07B
:103D9000E6FF19C0E6FF1AC0E6FF1BC0E6FF000100
:103DA000C82BAEEC21F07DEC03F0E552E5CF1BF023
:103DB000E5CF1AF0E5CF19F0E5CF18F0E5CFF4FF25
:103DC000E5CFF3FFE5CFF8FFE5CFF7FFE5CFF6FF4F
:103DD000E5CFDAFFE7CFD9FFE552E5CFEAFFE5CF40
:103DE000E9FFE550E5CFE0FFE5CFD8FF1000120076
:103DF00006000600E552E552E552E96A1F0EFC1482
:103E000009E0FDCFE6FFFECFE6FFFFCFE6FF0600AD
:103E1000E92AF4D7E9CFE6FFFC5001E0FC6A54C17F
:103E2000E9FF55C1EAFFE1CFEEFFE2CFEDFFBBDED8
:103E300058C154F159C155F1CBC0CAF058C1E9FF7E
:103E400059C1EAFFEECFE1FFEDCFE2FF1F0EFC14F8
:103E500002E00600FBD7FC5001E0FC6AE552E550A9
:103E6000E96E0500E550FF6EE550FE6EE550FD6E13
:103E7000E906F7E1E5CF1BF0E5CF1AF0E5CF19F041
:103E8000E5CF18F0E5CFF4FFE5CFF3FFE5CFF8FF7E
:103E9000E5CFF7FFE5CFF6FFE5CFDAFFE7CFD9FFB4
:103EA000E552E5CFEAFFE5CFE9FFE550E5CFE0FFDA
:083EB000E5CFD8FF100012005D
:083EB800D9CFE6FFDACFE6FFE7
:103EC000E1CFD9FFE2CFDAFFE652E652540EDE6EC2
:103ED000030EDD6E560EDE6E030EDD6E5C0EDE6EC4
:103EE000030EDD6E5E0EDE6E030EDD6E5A0EDE6EAE
:103EF000030EDD6E600EDE6E030EDD6E620EDE6E94
:103F0000030EDD6E640EDE6E030EDD6E660EDE6E7B
:103F1000030EDD6E680EDE6E030EDD6E6A0EDE6E63
:103F2000030EDD6E6C0EDE6E030EDD6E6E0EDE6E4B
:103F3000030EDD6E700EDE6E030EDD6E720EDE6E33
:103F4000030EDD6E740EDE6E030EDD6E760EDE6E1B
:103F5000030EDD6E780EDE6E030EDD6E7A0EDE6E03
:103F6000030EDD6E7C0EDE6E030EDD6E7E0EDE6EEB
:103F7000030EDD6E800EDE6E030EDD6E820EDE6ED3
:103F8000030EDD6E840EDE6E030EDD6E860EDE6EBB
:103F9000030EDD6E880EDE6E030EDD6E8A0EDE6EA3
:103FA000030EDD6E8C0EDE6E030EDD6E8E0EDE6E8B
:103FB000030EDD6E900EDE6E030EDD6E920EDE6E73
:103FC000030EDD6E940EDE6E030EDD6E960EDE6E5B
:103FD000030EDD6E980EDE6E030EDD6E9A0EDE6E43
:103FE000030EDD6E9C0EDE6E030EDD6E9E0EDE6E2B
:103FF000030EDD6EA00EDE6E030EDD6EA20EDE6E13
:10400000030EDD6EA40EDE6E030EDD6EA80EDE6EF8
:10401000030EDD6EAA0EDE6E030EDD6EAC0EDE6EDE
:10402000030EDD6EAE0EDE6E030EDD6EB00EDE6EC6
:10403000030EDD6EC40EDE6E030EDD6EE552E5523C
:0C404000E552E5CFDAFFE7CFD9FF120010
:04404C00D9CFE6FFE3
:10405000DACFE6FFE1CFD9FFE2CFDAFFE652E65250
:10406000DE6ADD6ADECF00F0DDCF01F0D8900150CE
:1040700004E6120E005C000E015806E20000DF2A82
:10408000010E01E3DB2AEED7E552E552E552E5CF1A
:10409000DAFFE7CFD9FF1200030EE66EE66AE66AA2
:1040A000E66AEDEC19F0E552E552E552E5521200F0
:1040B000020EE66EE66AE66AE66AEDEC19F0E55293
:1040C000E552E552E5521200D9CFE6FFDACFE6FF1E
:1040D000E1CFD9FFE2CFDAFFE552E5CFDAFFE7CF54
:1040E000D9FF1200D9CFE6FFDACFE6FFE1CFD9FF43
:1040F000E2CFDAFFE552E5CFDAFFE7CFD9FF1200D2
:10410000F29E62EC03F09F0EE66E74EC21F0E55235
:10411000A00EE66ED80EE66E58EC21F0E552E552A0
:104120003BEC04F0E66AD40EE66E020EE66E000E7C
:10413000E66EE66AC80EE66E400EE66E000EE66EAD
:104140009FEC17F0006E080EE15C02E2E16AE552B6
:0A415000E16E00501EEC04F01200B6
:06415A002A0EF66E000EB5
:10416000F76E000EF86E03010900F550CB6F0900E1
:10417000F550CC6F03E1CB6701D03DD00900F5507D
:10418000C66F0900F550C76F0900F550C86F0900E8
:104190000900F550E96E0900F550EA6E09000900C2
:1041A0000900F550C96F0900F550CA6F09000900F0
:1041B000F6CFCDF3F7CFCEF3F8CFCFF3C6C3F6FFEC
:1041C000C7C3F7FFC8C3F8FF0301C95302E1CA53CD
:1041D00007E00900F550EE6EC907F8E2CA07F9D703
:1041E000CDC3F6FFCEC3F7FFCFC3F8FF0301CB0764
:0841F000000ECC5BBFD71200EA
:0841F80018501D02F3CF14F072
:10420000F4CF15F01E02F3501526000EF420166EA2
:1042100018501F02F3501626000EF420176E185087
:104220002002F350172619501D02F3501526F450A2
:104230001622000E172219501E02F3501626F450B3
:10424000172219501F02F35017261A501D02F3505F
:104250001626F45017221A501E02F35017261B5030
:084260001D02F35017261200A5
:08426800176A166A156A146A50
:10427000200EE76ED890183619361A361B361436CB
:104280001536163617361D50145C1E5015581F5023
:1042900016582050175809E31D50145E1E50155A29
:1042A0001F50165A2050175A182AE72EE4D712002A
:1042B000D9CFE6FFDACFE6FFE1CFD9FFE2CFDAFFD1
:1042C000E652E652FC0EDBCFDEFFDBCFDDFF010E58
:1042D000DB50D76EDF50D66EE552E552E552E5CFA2
:0842E000DAFFE7CFD9FF12005D
:0842E800D9CFE6FFDACFE6FFB3
:1042F000E1CFD9FFE2CFDAFFFD0EDB507F0BD56EA9
:10430000D76AD66AF294FD0EDBAE02D0F28A01D0F3
:10431000F29AD58EE552E5CFDAFFE7CFD9FF12004A
:10432000000EF36E00EE00F0060E01D81200EA60F7
:1043300002D0EE6AFCD7F350E9601200EE6AFCD7B7
:1043400010EE80F020EE80F0F86A239CADEC20F0B7
:0C435000BCEC21F080EC20F0FBD7120048
:04435C00F2A407D0F0
:10436000F294D80ED76EA00ED66E3BEC04F012007D
:06437000E652E5521100C7
:024376003F0006
:02437800120031
:06437A000000010002003A
:10438000010003000100020001000400010002001E
:10439000010003000100020001000500010002000D
:1043A00001000300010002000100040001000200FE
:1043B00001000300010002000100060001000200EC
:1043C00001000300010002000100040001000200DE
:1043D00001000300010002000100050001000200CD
:1043E00001000300010002000100040001000200BE
:1043F00001000300010002000100070001000200AB
:10440000010003000100020001000400010002009D
:10441000010003000100020001000500010002008C
:10442000010003000100020001000400010002007D
:10443000010003000100020001000600010002006B
:10444000010003000100020001000400010002005D
:10445000010003000100020001000500010002004C
:10446000010003000100020001000400010002003D
:0A447000010003000100020001003A
:06447A0001007856341227
:10448000010002000100090012000100000000000C
:104490000000000000000100040000000000010016
:1044A0000100000000000100020000000000000008
:1044B0000100000001000100000000008000000079
:1044C0000500000000008000000000000000050062
:1044D0001500640001002301000003000100080032
:0C44E000010000000000000000002401AA
:020000040030CA
:0100010022DC
:010003000EEE
:010006008178
:00000001FF
