:020000040000FA
:060000000CEF01F01200FC
:020006000000F8
:08000800D9CFE6FFE1CFD9FFDB
:10001000050EE126010EF36E010EF3CFDBFF020E9B
:10002000DB6A956A320EDF6E010EDBCF10F0020E36
:10003000DBCF11F0113404E210500008000E11540F
:100040002FE2010EDBCF10F0020EDBCF11F0020E1B
:100050000D6E0E6A10C008F011C009F0A9EC00F096
:1000600004C010F005C011F0030E10C0DBFF040E39
:1000700011C0DBFFD950030FE96EDACFEAFFEE5073
:10008000ED1002E18C6801D08C6A010EDB2A020EB1
:1000900001E3DB2ADFCFE6FFCFEC00F0E552C4D767
:1000A000050EE15C02E2E16AE552E16EE552E7CF5E
:0400B000D9FF120062
:0C00B400060EF66E000EF76E000EF86EE1
:1000C00000010900F550856F0900F550866F03E1C6
:1000D000856701D03DD00900F550806F0900F550CB
:1000E000816F0900F550826F09000900F550E96E33
:1000F0000900F550EA6E090009000900F550836F08
:100100000900F550846F09000900F6CF87F0F7CF9A
:1001100088F0F8CF89F080C0F6FF81C0F7FF82C079
:10012000F8FF0001835302E1845307E00900F55012
:10013000EE6E8307F8E28407F9D787C0F6FF88C020
:10014000F7FF89C0F8FF00018507000E865BBFD767
:0201500012009B
:0E015200006A0EAEB2EF00F00D6C0E1EE86AF1
:100160000E22001E09AEBAEF00F0086C091EE86A04
:100170000922001EE6EC00F009BECAEF00F000AE56
:10018000000C086C091EE86A0922046C051EE86A66
:0E0190000522000C00BEC1EF00F00188FF0C3C
:02019E00FF0E52
:1001A000E350136EEF0E01D0F30EE76EE72ED6EF9D
:1001B00000F00C0E126EE76AE72EDCEF00F0122E54
:0C01C000DBEF00F0132ED4EF00F0120073
:0401CC00056A046A52
:1001D000100EE76ED89008360936043605360D50F5
:1001E000045C0E50055805E30D50045E0E50055A90
:0801F000082AE72EF0D71200E7
:0801F800000EF36E00EE00F0B2
:10020000060E01D81200EA6002D0EE6AFCD7F35065
:08021000E9601200EE6AFCD760
:0802180015EE00F025EE00F0E8
:10022000F86A019C5AEC00F01AEC01F004EC00F0C2
:04023000FBD71200E6
:020234001200B6
:00000001FF
