:0600000000F070EF1DF09E
:103ADE00FFFF106A0F6A00019BEF1EF0FFFF090E39
:103AEE00FFFFE82E77EF1DF01200FFFFFFFFFFFF35
:103AFE000F0E016E9E0EFFFFE82E82EF1DF0012EBF
:103B0E0082EF1DF01200FFFFFFFF026EFFFF0A0E95
:103B1E00016EBE0EFFFFE82E91EF1DF0012E91EF0C
:103B2E001DF000D0022E8DEF1DF09EEF1DF0FFFF59
:103B3E001200FFFFFFFF016E0F0E95160F0E83167C
:103B4E000150F00B83128C908C9275EC1DF08C84CE
:103B5E0075EC1DF08C940F0E83160138F00BF00BE4
:103B6E00831275EC1DF08C8475EC1DF08C94F00EA8
:103B7E009512C2EF1DF0FFFF1200FFFFFFFF016E57
:103B8E000F0E95160F0E83160150F00B83128C82BA
:103B9E008C9075EC1DF08C8475EC1DF08C940F0ED2
:103BAE0083160138F00BF00B831275EC1DF08C842C
:103BBE0075EC1DF08C94F00E9512E6EF1DF0FFFFE4
:103BCE001200FFFFFFFF016E0F0E95160F0E8316EC
:103BDE0001508009F00B83128C908C9275EC1DF0C5
:103BEE008C8475EC1DF08C940F0E83160138F00B3F
:103BFE00F00B831275EC1DF08C8475EC1DF08C941B
:103C0E00F00E95120BEF1EF0FFFF1200FFFFFFFFED
:103C1E00800EE96E040EE16ED96A300EEE6E620E03
:103C2E00EE6E310EEE6EEE6E300EEE6E210EEE6E0E
:103C3E00EE6E000EEE6EFFFF800EE96E040EE16E6C
:103C4E00D96A0F510708D8A030EF1EF00F51EB5074
:103C5E001200FFFFFF0E1200FFFFFFFF8C808C9201
:103C6E0075EC1DF08C8475EC1DF083AE41EF1EF0EB
:103C7E0044EF1EF0FFFF54EF1EF0FFFF8C9475EC27
:103C8E001DF08C8475EC1DF08C948C90010E62EFFF
:103C9E001EF062EF1EF062EF1EF0FFFF8C9475ECCB
:103CAE001DF08C8475EC1DF08C948C90000E62EFE0
:103CBE001EF062EF1EF0FFFF1200FFFFFFFF87EF07
:103CCE001EF06CEF1EF06CEF1EF0FFFF34EC1EF0DA
:103CDE000009D8A475EF1EF078EF1EF0FFFF6CEF11
:103CEE001EF0FFFF7BEF1EF0FFFF02C0D9FF03C0E7
:103CFE00DAFFDF50C5EC1DF0024A032A87EF1EF0F3
:103D0E00FFFF02C0D9FF03C0DAFFDF50D8A492EF45
:103D1E001EF095EF1EF0FFFF6CEF1EF0FFFF98EF09
:103D2E001EF0FFFF1200FFFFFFFF0EEC1EF0000E55
:103D3E000E6E000E0D6E0EBEAEEF1EF00E500AE1B0
:103D4E00080E0D5CD8A0AEEF1EF0B1EF1EF0FFFF17
:103D5E00B6EF1EF0FFFFDAEF1EF0DAEF1EF0FFFFF8
:103D6E000DC00FF00EC010F022EC1EF0046E050E0A
:103D7E000D24D96E000E0E20DA6E04C0DFFF0D4A40
:103D8E000E2A0EBED4EF1EF00E500AE1080E0D5C88
:103D9E00D8A0D4EF1EF0D7EF1EF0FFFFB6EF1EF047
:103DAE00FFFFDAEF1EF0FFFF000E836E000E956E22
:103DBE00280E41EC1FF0E6EF1EF0E6EF1EF0FFFFBF
:103DCE0034EC1EF00009D8A4EFEF1EF0F2EF1EF057
:103DDE00FFFFE6EF1EF0FFFFF5EF1EF0FFFF000EF8
:103DEE00E9EC1DF0060EA1EC1DF000EF1FF000EF48
:103DFE001FF0FFFF34EC1EF00009D8A409EF1FF0EE
:103E0E000CEF1FF0FFFF00EF1FF0FFFF0FEF1FF093
:103E1E00FFFF0C0EA1EC1DF017EF1FF017EF1FF0B8
:103E2E00FFFF34EC1EF00009D8A420EF1FF023EFA3
:103E3E001FF0FFFF17EF1FF0FFFF26EF1FF0FFFF32
:103E4E00050E026E000E036E65EC1EF031EF1FF0D4
:103E5E0031EF1FF0FFFF34EC1EF00009D8A43AEF4B
:103E6E001FF03DEF1FF0FFFF31EF1FF0FFFF0300CC
:103E7E0001EF00F0FFFF036E0F0E83160F0E951667
:103E8E009590959295948C908C928C947EEC1DF0DE
:103E9E00300EA1EC1DF0050E8BEC1DF0300EA1ECDA
:103EAE001DF0010E8BEC1DF0320EA1EC1DF062EF39
:103EBE001FF062EF1FF0FFFF34EC1EF00009D8A4D4
:103ECE006BEF1FF06EEF1FF0FFFF62EF1FF0FFFFB3
:103EDE0075EF1FF075EF1FF075EF1FF0FFFF34EC5D
:103EEE001EF00009D8A47EEF1FF081EF1FF0FFFF38
:103EFE0075EF1FF0FFFF84EF1FF0FFFF0350A1ECE3
:103F0E001DF08CEF1FF08CEF1FF0FFFF34EC1EF056
:103F1E000009D8A495EF1FF098EF1FF0FFFF8CEF6C
:103F2E001FF0FFFF9BEF1FF0FFFF080EA1EC1DF02F
:103F3E00A3EF1FF0A3EF1FF0FFFF34EC1EF00009FC
:103F4E00D8A4ACEF1FF0AFEF1FF0FFFFA3EF1FF0F1
:103F5E00FFFFB2EF1FF0FFFF0F0EA1EC1DF0BAEF47
:103F6E001FF0BAEF1FF0FFFF34EC1EF00009D8A4CB
:103F7E00C3EF1FF0C6EF1FF0FFFFBAEF1FF0FFFFFA
:103F8E00C9EF1FF0FFFF010EA1EC1DF0D1EF1FF0E6
:103F9E00D1EF1FF0FFFF34EC1EF00009D8A4DAEFCA
:103FAE001FF0DDEF1FF0FFFFD1EF1FF0FFFFE0EF7F
:103FBE001FF0FFFF040EA1EC1DF0E8EF1FF0E8EF7D
:103FCE001FF0FFFF34EC1EF00009D8A4F1EF1FF034
:103FDE00F4EF1FF0FFFFE8EF1FF0FFFFF7EF1FF00A
:103FEE00FFFF800EE9EC1DF0FDEF1FF0FFFF12004A
:023FFE00FFFFC3
:020000040020DA
:08000000FFFFFFFFFFFFFFFF00
:020000040030CA
:0E000000FF220F0EFF0181FF0FC00FE00F4027
:00000001FF
