:020000040000FA
:060000003CEF02F01200CB
:020006000000F8
:08000800060EF66E000EF76E05
:10001000000EF86E00010900F550856F0900F550DB
:10002000866F03E1856701D03DD00900F550806FF0
:100030000900F550816F0900F550826F0900090031
:10004000F550E96E0900F550EA6E09000900090053
:10005000F550836F0900F550846F09000900F6CF51
:1000600087F0F7CF88F0F8CF89F080C0F6FF81C025
:10007000F7FF82C0F8FF0001835302E1845307E0D9
:100080000900F550EE6E8307F8E28407F9D787C0C0
:10009000F6FF88C0F7FF89C0F8FF00018507000E52
:0600A000865BBFD71200D1
:0A00A600D9CFE6FFE1CFD9FF0F0E1E
:1000B000831695169590959295948C908C928C942D
:1000C000A6EC00F0300E33D8050EE66EFFEC01F022
:1000D000E552300E2CD8010EE66EFFEC01F0E55231
:1000E000320E25D829D8FEE127D8FEE1FE0EDBCF5F
:1000F000E6FF55EC01F0E5521FD8FEE1080E17D8D7
:100100001BD8FEE10F0E13D817D8FEE1010E0FD851
:1001100013D8FEE1040E0BD80FD8FEE1800EE66E78
:10012000EAEC00F0E552E552E7CFD9FF1200E66EA7
:1001300055EC01F0E552120016EC02F00009120035
:10014000060EE66E58EC02F0E5521200F00EE66E76
:100150004AEC02F0E5521200F60EE66E4AEC02F0AE
:10016000E5521200836A956A280EE66E53EC00F0A1
:10017000E55216EC02F0000901E0FBD7060EE66E30
:1001800055EC01F0E55216EC02F0000901E0FBD756
:100190000C0EE66E55EC01F0E55216EC02F000098B
:1001A00001E0FBD7E66AEAEC00F0E55216EC02F05B
:1001B000000901E0FBD7C60EE66E040EE66EBCEC4D
:1001C00001F0E552E55216EC02F0000901E0FBD720
:0401D0000300120016
:0C01D400D9CFE6FFE1CFD9FF0F0E951642
:1001E0008316FE0EDB508009F00B83128C908C92EC
:1001F0000ED80F0E8316FE0EDB38F00BF00B8312B9
:1002000006D8F00E9512E552E7CFD9FF1200A0EC08
:0C02100000F08C84A0EC00F08C94120034
:04021C00D9CFE6FF51
:10022000E1CFD9FF0F0E95168316FE0EDB50400965
:10023000F00B83128C908C920ED80F0E8316FE0E4C
:10024000DB38F00BF00B831206D8F00E9512E55256
:10025000E7CFD9FF1200A0EC00F08C84A0EC00F0F6
:040260008C94120068
:0C026400D9CFE6FFE1CFD9FF0F0E9516B1
:100270008316FE0EDB50F00B83128C828C900ED80E
:100280000F0E8316FE0EDB38F00BF00B831206D830
:10029000F00E9512E552E7CFD9FF1200A0EC00F066
:0A02A0008C84A0EC00F08C94120096
:0602AA00D9CFE6FFE1CF11
:1002B000D9FF0F0E95168316FE0EDB50F00B83123E
:1002C0008C908C920ED80F0E8316FE0EDB38F00B3E
:1002D000F00B831206D8F00E9512E552E7CFD9FF46
:1002E0001200A0EC00F08C84A0EC00F08C941200C2
:1002F000D9CFE6FFE1CFD9FFE6528C808C82A0EC0B
:1003000000F08C84A0EC00F0F00E8314DF6E8C946F
:10031000A0EC00F08C84A0EC00F083380F0B0F0BE6
:10032000DF128C948C928C90DF50E552E552E7CF2F
:04033000D9FF1200DF
:0C033400D9CFE6FFE1CFD9FFE6528C8064
:100340008C92A0EC00F08C84A0EC00F0F00E8314F2
:10035000DF6E8C94A0EC00F08C84A0EC00F083386D
:100360000F0B0F0BDF128C948C907F0EDF14E55275
:08037000E552E7CFD9FF1200AE
:08037800D9CFE6FFE1CFD9FF68
:1003800014D80FE016EC02F00009FCE10ED8E66E7E
:1003900032EC01F0E552FD0EDB2AFE0EF1E3DB2A22
:1003A000EFD7E552E7CFD9FF1200FD0EDBCFF6FF06
:0C03B000FE0EDBCFF7FF0800F550120036
:0403BC00D9CFE6FFB0
:1003C000E1CFD9FF14D80FE016EC02F00009FCE1F0
:1003D0000ED8E66E32EC01F0E552FD0EDB2AFE0E81
:1003E000F1E3DB2AEFD7E552E7CFD9FF1200FD0E8C
:0E03F000DBCFE9FFFE0EDBCFEAFFEF5012007D
:0203FE00FF0EF0
:10040000E350036EEF0E01D0F30EE76EE72E06EF1A
:1004100002F00C0E026EE76AE72E0CEF02F0022EDD
:0C0420000BEF02F0032E04EF02F01200BC
:04042C008C808C92A2
:10043000A0EC00F08C84A0EC00F083AE02D003D8D6
:10044000010C01D8000C8C94A0EC00F08C84A0EC82
:0804500000F08C948C90120066
:08045800000EF36E00EE00F04F
:10046000060E01D81200EA6002D0EE6AFCD7F35003
:08047000E9601200EE6AFCD7FE
:0804780015EE00F025EE00F086
:10048000F86A019C04EC00F067EC02F0B2EC00F0BA
:04049000FBD7120084
:0C049400FF0EE350036E1B0E00D001D0E1
:1004A000200EE76EE72EFED7032EFAD700D01200FB
:1004B000FF0EE350E84E1200000000D000D000D044
:0604C000E82EFAD712003D
:0704C6004C696E6520310056
:0204CE0012001A
:020000040030CA
:0100010022DC
:010003000EEE
:010006008178
:00000001FF
